{
  "_format": "hh-sol-artifact-1",
  "contractName": "AuctionPlatform",
  "sourceName": "contracts/AuctionPlatform.sol",
  "abi": [
    {
      "inputs": [],
      "stateMutability": "nonpayable",
      "type": "constructor"
    },
    {
      "inputs": [],
      "name": "ReentrancyGuardReentrantCall",
      "type": "error"
    },
    {
      "anonymous": false,
      "inputs": [
        {
          "indexed": true,
          "internalType": "uint256",
          "name": "auctionId",
          "type": "uint256"
        }
      ],
      "name": "AuctionCanceled",
      "type": "event"
    },
    {
      "anonymous": false,
      "inputs": [
        {
          "indexed": true,
          "internalType": "uint256",
          "name": "auctionId",
          "type": "uint256"
        },
        {
          "indexed": true,
          "internalType": "address",
          "name": "seller",
          "type": "address"
        },
        {
          "indexed": false,
          "internalType": "uint256",
          "name": "startingPrice",
          "type": "uint256"
        },
        {
          "indexed": false,
          "internalType": "uint256",
          "name": "endTime",
          "type": "uint256"
        },
        {
          "indexed": false,
          "internalType": "string",
          "name": "productCid",
          "type": "string"
        }
      ],
      "name": "AuctionCreated",
      "type": "event"
    },
    {
      "anonymous": false,
      "inputs": [
        {
          "indexed": true,
          "internalType": "uint256",
          "name": "auctionId",
          "type": "uint256"
        },
        {
          "indexed": true,
          "internalType": "address",
          "name": "winner",
          "type": "address"
        },
        {
          "indexed": false,
          "internalType": "uint256",
          "name": "winningBid",
          "type": "uint256"
        }
      ],
      "name": "AuctionEnded",
      "type": "event"
    },
    {
      "anonymous": false,
      "inputs": [
        {
          "indexed": true,
          "internalType": "uint256",
          "name": "auctionId",
          "type": "uint256"
        }
      ],
      "name": "AutoReleaseCompleted",
      "type": "event"
    },
    {
      "anonymous": false,
      "inputs": [
        {
          "indexed": true,
          "internalType": "uint256",
          "name": "auctionId",
          "type": "uint256"
        },
        {
          "indexed": true,
          "internalType": "address",
          "name": "bidder",
          "type": "address"
        },
        {
          "indexed": false,
          "internalType": "uint256",
          "name": "amount",
          "type": "uint256"
        }
      ],
      "name": "BidPlaced",
      "type": "event"
    },
    {
      "anonymous": false,
      "inputs": [
        {
          "indexed": true,
          "internalType": "uint256",
          "name": "auctionId",
          "type": "uint256"
        },
        {
          "indexed": true,
          "internalType": "address",
          "name": "buyer",
          "type": "address"
        }
      ],
      "name": "DeliveryConfirmed",
      "type": "event"
    },
    {
      "anonymous": false,
      "inputs": [
        {
          "indexed": true,
          "internalType": "uint256",
          "name": "auctionId",
          "type": "uint256"
        },
        {
          "indexed": true,
          "internalType": "address",
          "name": "buyer",
          "type": "address"
        }
      ],
      "name": "DeliveryExtensionRequested",
      "type": "event"
    },
    {
      "anonymous": false,
      "inputs": [
        {
          "indexed": true,
          "internalType": "uint256",
          "name": "auctionId",
          "type": "uint256"
        },
        {
          "indexed": true,
          "internalType": "address",
          "name": "raisedBy",
          "type": "address"
        }
      ],
      "name": "DisputeRaised",
      "type": "event"
    },
    {
      "anonymous": false,
      "inputs": [
        {
          "indexed": true,
          "internalType": "uint256",
          "name": "auctionId",
          "type": "uint256"
        },
        {
          "indexed": false,
          "internalType": "uint256",
          "name": "buyerRefundPercentage",
          "type": "uint256"
        },
        {
          "indexed": true,
          "internalType": "address",
          "name": "resolvedBy",
          "type": "address"
        }
      ],
      "name": "DisputeResolved",
      "type": "event"
    },
    {
      "anonymous": false,
      "inputs": [
        {
          "indexed": true,
          "internalType": "uint256",
          "name": "auctionId",
          "type": "uint256"
        },
        {
          "indexed": false,
          "internalType": "bytes32",
          "name": "shipmentProofHash",
          "type": "bytes32"
        }
      ],
      "name": "ItemShipped",
      "type": "event"
    },
    {
      "anonymous": false,
      "inputs": [
        {
          "indexed": true,
          "internalType": "uint256",
          "name": "auctionId",
          "type": "uint256"
        },
        {
          "indexed": true,
          "internalType": "address",
          "name": "buyer",
          "type": "address"
        },
        {
          "indexed": false,
          "internalType": "uint256",
          "name": "amount",
          "type": "uint256"
        }
      ],
      "name": "ShippingFeePaid",
      "type": "event"
    },
    {
      "anonymous": false,
      "inputs": [
        {
          "indexed": true,
          "internalType": "uint256",
          "name": "auctionId",
          "type": "uint256"
        },
        {
          "indexed": false,
          "internalType": "uint256",
          "name": "fee",
          "type": "uint256"
        }
      ],
      "name": "ShippingFeeSet",
      "type": "event"
    },
    {
      "anonymous": false,
      "inputs": [
        {
          "indexed": true,
          "internalType": "uint256",
          "name": "auctionId",
          "type": "uint256"
        },
        {
          "indexed": true,
          "internalType": "address",
          "name": "winner",
          "type": "address"
        },
        {
          "indexed": false,
          "internalType": "uint256",
          "name": "penalty",
          "type": "uint256"
        },
        {
          "indexed": false,
          "internalType": "uint256",
          "name": "winnerRefund",
          "type": "uint256"
        }
      ],
      "name": "WinnerForfeited",
      "type": "event"
    },
    {
      "anonymous": false,
      "inputs": [
        {
          "indexed": true,
          "internalType": "address",
          "name": "user",
          "type": "address"
        },
        {
          "indexed": false,
          "internalType": "uint256",
          "name": "amount",
          "type": "uint256"
        }
      ],
      "name": "Withdrawal",
      "type": "event"
    },
    {
      "inputs": [],
      "name": "AUTO_RELEASE_TIMEOUT",
      "outputs": [
        {
          "internalType": "uint256",
          "name": "",
          "type": "uint256"
        }
      ],
      "stateMutability": "view",
      "type": "function"
    },
    {
      "inputs": [],
      "name": "COLLATERAL_BPS",
      "outputs": [
        {
          "internalType": "uint256",
          "name": "",
          "type": "uint256"
        }
      ],
      "stateMutability": "view",
      "type": "function"
    },
    {
      "inputs": [],
      "name": "DELIVERY_EXTENSION_DURATION",
      "outputs": [
        {
          "internalType": "uint256",
          "name": "",
          "type": "uint256"
        }
      ],
      "stateMutability": "view",
      "type": "function"
    },
    {
      "inputs": [],
      "name": "DISPUTE_BOND",
      "outputs": [
        {
          "internalType": "uint256",
          "name": "",
          "type": "uint256"
        }
      ],
      "stateMutability": "view",
      "type": "function"
    },
    {
      "inputs": [],
      "name": "DISPUTE_MIN_DELAY_SHIPMENT",
      "outputs": [
        {
          "internalType": "uint256",
          "name": "",
          "type": "uint256"
        }
      ],
      "stateMutability": "view",
      "type": "function"
    },
    {
      "inputs": [],
      "name": "EXTENSION_DURATION",
      "outputs": [
        {
          "internalType": "uint256",
          "name": "",
          "type": "uint256"
        }
      ],
      "stateMutability": "view",
      "type": "function"
    },
    {
      "inputs": [],
      "name": "EXTENSION_WINDOW",
      "outputs": [
        {
          "internalType": "uint256",
          "name": "",
          "type": "uint256"
        }
      ],
      "stateMutability": "view",
      "type": "function"
    },
    {
      "inputs": [],
      "name": "FORFEIT_PENALTY_BPS",
      "outputs": [
        {
          "internalType": "uint256",
          "name": "",
          "type": "uint256"
        }
      ],
      "stateMutability": "view",
      "type": "function"
    },
    {
      "inputs": [],
      "name": "FORFEIT_PLATFORM_SHARE_BPS",
      "outputs": [
        {
          "internalType": "uint256",
          "name": "",
          "type": "uint256"
        }
      ],
      "stateMutability": "view",
      "type": "function"
    },
    {
      "inputs": [],
      "name": "MIN_BID_INCREMENT_BPS",
      "outputs": [
        {
          "internalType": "uint256",
          "name": "",
          "type": "uint256"
        }
      ],
      "stateMutability": "view",
      "type": "function"
    },
    {
      "inputs": [],
      "name": "MIN_COLLATERAL",
      "outputs": [
        {
          "internalType": "uint256",
          "name": "",
          "type": "uint256"
        }
      ],
      "stateMutability": "view",
      "type": "function"
    },
    {
      "inputs": [],
      "name": "PLATFORM_FEE_BPS",
      "outputs": [
        {
          "internalType": "uint256",
          "name": "",
          "type": "uint256"
        }
      ],
      "stateMutability": "view",
      "type": "function"
    },
    {
      "inputs": [],
      "name": "admin",
      "outputs": [
        {
          "internalType": "address",
          "name": "",
          "type": "address"
        }
      ],
      "stateMutability": "view",
      "type": "function"
    },
    {
      "inputs": [],
      "name": "adminFeeBalance",
      "outputs": [
        {
          "internalType": "uint256",
          "name": "",
          "type": "uint256"
        }
      ],
      "stateMutability": "view",
      "type": "function"
    },
    {
      "inputs": [],
      "name": "auctionCount",
      "outputs": [
        {
          "internalType": "uint256",
          "name": "",
          "type": "uint256"
        }
      ],
      "stateMutability": "view",
      "type": "function"
    },
    {
      "inputs": [
        {
          "internalType": "uint256",
          "name": "",
          "type": "uint256"
        }
      ],
      "name": "auctions",
      "outputs": [
        {
          "internalType": "address payable",
          "name": "seller",
          "type": "address"
        },
        {
          "internalType": "uint256",
          "name": "startingPrice",
          "type": "uint256"
        },
        {
          "internalType": "uint256",
          "name": "highestBid",
          "type": "uint256"
        },
        {
          "internalType": "address payable",
          "name": "highestBidder",
          "type": "address"
        },
        {
          "internalType": "uint256",
          "name": "startTime",
          "type": "uint256"
        },
        {
          "internalType": "uint256",
          "name": "endTime",
          "type": "uint256"
        },
        {
          "internalType": "uint256",
          "name": "collateral",
          "type": "uint256"
        },
        {
          "internalType": "string",
          "name": "productCid",
          "type": "string"
        },
        {
          "internalType": "enum AuctionPlatform.AuctionStatus",
          "name": "status",
          "type": "uint8"
        },
        {
          "internalType": "enum AuctionPlatform.EscrowStatus",
          "name": "escrowStatus",
          "type": "uint8"
        },
        {
          "internalType": "uint256",
          "name": "shippedTime",
          "type": "uint256"
        },
        {
          "internalType": "bytes32",
          "name": "shipmentProofHash",
          "type": "bytes32"
        },
        {
          "internalType": "uint256",
          "name": "buyNowPrice",
          "type": "uint256"
        },
        {
          "internalType": "uint256",
          "name": "deliveryDeadline",
          "type": "uint256"
        },
        {
          "internalType": "bool",
          "name": "deliveryExtensionUsed",
          "type": "bool"
        },
        {
          "internalType": "uint256",
          "name": "shippingFee",
          "type": "uint256"
        },
        {
          "internalType": "enum AuctionPlatform.ShippingPayer",
          "name": "shippingPayer",
          "type": "uint8"
        },
        {
          "internalType": "bool",
          "name": "shippingFeePaid",
          "type": "bool"
        }
      ],
      "stateMutability": "view",
      "type": "function"
    },
    {
      "inputs": [
        {
          "internalType": "uint256",
          "name": "_auctionId",
          "type": "uint256"
        }
      ],
      "name": "bid",
      "outputs": [],
      "stateMutability": "payable",
      "type": "function"
    },
    {
      "inputs": [
        {
          "internalType": "uint256",
          "name": "_auctionId",
          "type": "uint256"
        }
      ],
      "name": "cancelAuction",
      "outputs": [],
      "stateMutability": "nonpayable",
      "type": "function"
    },
    {
      "inputs": [
        {
          "internalType": "uint256",
          "name": "_auctionId",
          "type": "uint256"
        }
      ],
      "name": "claimFunds",
      "outputs": [],
      "stateMutability": "nonpayable",
      "type": "function"
    },
    {
      "inputs": [
        {
          "internalType": "uint256",
          "name": "_auctionId",
          "type": "uint256"
        }
      ],
      "name": "confirmDelivery",
      "outputs": [],
      "stateMutability": "nonpayable",
      "type": "function"
    },
    {
      "inputs": [
        {
          "internalType": "uint256",
          "name": "_startingPrice",
          "type": "uint256"
        },
        {
          "internalType": "uint256",
          "name": "_startTime",
          "type": "uint256"
        },
        {
          "internalType": "uint256",
          "name": "_duration",
          "type": "uint256"
        },
        {
          "internalType": "string",
          "name": "_productCid",
          "type": "string"
        },
        {
          "internalType": "uint256",
          "name": "_buyNowPrice",
          "type": "uint256"
        },
        {
          "internalType": "enum AuctionPlatform.ShippingPayer",
          "name": "_shippingPayer",
          "type": "uint8"
        }
      ],
      "name": "createAuction",
      "outputs": [],
      "stateMutability": "payable",
      "type": "function"
    },
    {
      "inputs": [
        {
          "internalType": "uint256",
          "name": "_auctionId",
          "type": "uint256"
        }
      ],
      "name": "endAuction",
      "outputs": [],
      "stateMutability": "nonpayable",
      "type": "function"
    },
    {
      "inputs": [
        {
          "internalType": "uint256",
          "name": "_auctionId",
          "type": "uint256"
        }
      ],
      "name": "forfeitWin",
      "outputs": [],
      "stateMutability": "nonpayable",
      "type": "function"
    },
    {
      "inputs": [
        {
          "internalType": "uint256",
          "name": "_auctionId",
          "type": "uint256"
        }
      ],
      "name": "getAuctionCore",
      "outputs": [
        {
          "internalType": "address",
          "name": "seller",
          "type": "address"
        },
        {
          "internalType": "uint256",
          "name": "startingPrice",
          "type": "uint256"
        },
        {
          "internalType": "uint256",
          "name": "highestBid",
          "type": "uint256"
        },
        {
          "internalType": "address",
          "name": "highestBidder",
          "type": "address"
        },
        {
          "internalType": "uint256",
          "name": "startTime",
          "type": "uint256"
        },
        {
          "internalType": "uint256",
          "name": "endTime",
          "type": "uint256"
        },
        {
          "internalType": "uint256",
          "name": "collateral",
          "type": "uint256"
        },
        {
          "internalType": "string",
          "name": "productCid",
          "type": "string"
        },
        {
          "internalType": "enum AuctionPlatform.AuctionStatus",
          "name": "status",
          "type": "uint8"
        },
        {
          "internalType": "uint256",
          "name": "buyNowPrice",
          "type": "uint256"
        }
      ],
      "stateMutability": "view",
      "type": "function"
    },
    {
      "inputs": [
        {
          "internalType": "uint256",
          "name": "_auctionId",
          "type": "uint256"
        }
      ],
      "name": "getAuctionEscrow",
      "outputs": [
        {
          "internalType": "enum AuctionPlatform.EscrowStatus",
          "name": "escrowStatus",
          "type": "uint8"
        },
        {
          "internalType": "uint256",
          "name": "shippedTime",
          "type": "uint256"
        },
        {
          "internalType": "bytes32",
          "name": "shipmentProofHash",
          "type": "bytes32"
        },
        {
          "internalType": "uint256",
          "name": "deliveryDeadline",
          "type": "uint256"
        },
        {
          "internalType": "bool",
          "name": "deliveryExtensionUsed",
          "type": "bool"
        }
      ],
      "stateMutability": "view",
      "type": "function"
    },
    {
      "inputs": [
        {
          "internalType": "uint256",
          "name": "_auctionId",
          "type": "uint256"
        },
        {
          "internalType": "bytes32",
          "name": "_shipmentProofHash",
          "type": "bytes32"
        }
      ],
      "name": "markShipped",
      "outputs": [],
      "stateMutability": "nonpayable",
      "type": "function"
    },
    {
      "inputs": [
        {
          "internalType": "uint256",
          "name": "_auctionId",
          "type": "uint256"
        }
      ],
      "name": "payShippingFee",
      "outputs": [],
      "stateMutability": "payable",
      "type": "function"
    },
    {
      "inputs": [
        {
          "internalType": "uint256",
          "name": "",
          "type": "uint256"
        },
        {
          "internalType": "address",
          "name": "",
          "type": "address"
        }
      ],
      "name": "pendingReturns",
      "outputs": [
        {
          "internalType": "uint256",
          "name": "",
          "type": "uint256"
        }
      ],
      "stateMutability": "view",
      "type": "function"
    },
    {
      "inputs": [
        {
          "internalType": "uint256",
          "name": "_auctionId",
          "type": "uint256"
        }
      ],
      "name": "raiseDispute",
      "outputs": [],
      "stateMutability": "payable",
      "type": "function"
    },
    {
      "inputs": [
        {
          "internalType": "uint256",
          "name": "_auctionId",
          "type": "uint256"
        }
      ],
      "name": "requestDeliveryExtension",
      "outputs": [],
      "stateMutability": "nonpayable",
      "type": "function"
    },
    {
      "inputs": [
        {
          "internalType": "uint256",
          "name": "_startingPrice",
          "type": "uint256"
        }
      ],
      "name": "requiredCollateral",
      "outputs": [
        {
          "internalType": "uint256",
          "name": "",
          "type": "uint256"
        }
      ],
      "stateMutability": "pure",
      "type": "function"
    },
    {
      "inputs": [
        {
          "internalType": "uint256",
          "name": "_auctionId",
          "type": "uint256"
        },
        {
          "internalType": "uint256",
          "name": "_buyerRefundPercentage",
          "type": "uint256"
        }
      ],
      "name": "resolveDispute",
      "outputs": [],
      "stateMutability": "nonpayable",
      "type": "function"
    },
    {
      "inputs": [
        {
          "internalType": "uint256",
          "name": "_auctionId",
          "type": "uint256"
        },
        {
          "internalType": "uint256",
          "name": "_fee",
          "type": "uint256"
        }
      ],
      "name": "setShippingFee",
      "outputs": [],
      "stateMutability": "nonpayable",
      "type": "function"
    },
    {
      "inputs": [
        {
          "internalType": "address",
          "name": "_newAdmin",
          "type": "address"
        }
      ],
      "name": "transferAdmin",
      "outputs": [],
      "stateMutability": "nonpayable",
      "type": "function"
    },
    {
      "inputs": [
        {
          "internalType": "uint256",
          "name": "_auctionId",
          "type": "uint256"
        }
      ],
      "name": "withdraw",
      "outputs": [],
      "stateMutability": "nonpayable",
      "type": "function"
    },
    {
      "inputs": [],
      "name": "withdrawAdminFee",
      "outputs": [],
      "stateMutability": "nonpayable",
      "type": "function"
    }
  ],
  "bytecode": "0x60808060405234604b5760017f9b779b17422d0df92223018b32b4d1fa46e071723d6817e2486d003becc55f0055600080546001600160a01b03191633179055612f6e90816100518239f35b600080fdfe60a0604052600436101561001257600080fd5b60003560e01c806305a34aeb146121ca57806314414cc0146121ad5780631b55e3381461201157806327f543a6146117335780632ad7157314611ff35780632d896b2a14611fd55780632e1a7d4d14611e5f5780632f2378c414611e42578063454a2ab314611a6557806346a0d9b91461198157806346d26c2a146118f45780634c68ae63146118d2578063539aa77f146118b6578063571a26a0146117385780635baa121c146117335780635dd624df146113be5780636bd19a96146113c3578063753a4b0d1461146057806375829def146113c8578063760b08aa146113c35780637eb79d5d146113be5780638ddac1ef1461136b57806396b5a75514611210578063a5c1674e14610fcf578063abb7bc4a14610f76578063b082b44214610d8e578063b9a2de3a14610bd9578063bdc84ac3146108da578063c5185a52146106f8578063cde951d71461062c578063dff6c839146104e9578063ee91bb59146104cb578063f851a440146104a2578063fa77964814610480578063fd84cb97146102a35763fe49abe3146101a857600080fd5b3461029e57600036600319011261029e576000546001600160a01b03166101d0338214612dc8565b60025490811561024d5760008080938193826002555af16101ef612c2f565b50156101f757005b60405162461bcd60e51b815260206004820152602860248201527f41756374696f6e506c6174666f726d3a2061646d696e207769746864726177616044820152671b0819985a5b195960c21b6064820152608490fd5b60405162461bcd60e51b8152602060048201526024808201527f41756374696f6e506c6174666f726d3a206e6f206665657320746f20776974686044820152636472617760e01b6064820152608490fd5b600080fd5b3461029e57602036600319011261029e576004356102bf612edc565b8060005260036020526102e360018060a01b03600360406000200154163314612d14565b80151580610474575b6102f590612b63565b8060005260036020526040600020600881016104008154610327600260ff8360081c1661032181612973565b14612bbf565b61ff0019161790556002810190815460c881029080820460c8149015171561045e57612710900461035a81600254612ae0565b908160025560ff600f8401541691600283101561044857600080868896828096819660016103e79a14831461042257506103b86103c3916103b0600e8601916103a68354600254612ae0565b6002558754612c22565b905490612c22565b600684015490612ae0565b925b5560068101839055546001600160a01b03165af16103e1612c2f565b50612c5f565b33907f64a783c6150854ae756454311c7625a965c757996ba8cc1a8c6205380f337250600080a36001600080516020612f1983398151915255005b610442916104386103b892600e87015490612ae0565b6002558554612c22565b926103c5565b634e487b7160e01b600052602160045260246000fd5b634e487b7160e01b600052601160045260246000fd5b506001548111156102ec565b3461029e57600036600319011261029e576020604051662386f26fc100008152f35b3461029e57600036600319011261029e576000546040516001600160a01b039091168152602090f35b3461029e57600036600319011261029e5760206040516202a3008152f35b3461029e57602036600319011261029e57600435610505612edc565b80600052600360205261052960018060a01b03600360406000200154163314612d14565b80151580610620575b61053b90612b63565b8060005260036020526040600020610562600260ff600884015460081c1661032181612973565b600d81019081549160ff83166105cb576001600c9360ff19161790550180549062093a80820180921161045e575533907f5663dae7826cc182b462e0051fc56abe1a17ffea3b9ed82f0f165f4f882f94b8600080a36001600080516020612f1983398151915255005b60405162461bcd60e51b815260206004820152602760248201527f41756374696f6e506c6174666f726d3a20657874656e73696f6e20616c726561604482015266191e481d5cd95960ca1b6064820152608490fd5b50600154811115610532565b3461029e5761063a36612ab7565b61064f60018060a01b03600054163314612dc8565b811515806106ec575b61066190612b63565b816000526003602052600e60406000200180546106a857817fa855658aeaba6772262f0a1362dc045fddcf6549d8f6124378fe2e1a1d1a50ee9260209255604051908152a2005b606460405162461bcd60e51b815260206004820152602060248201527f41756374696f6e506c6174666f726d3a2066656520616c7265616479207365746044820152fd5b50600154821115610658565b602036600319011261029e5760043561070f612edc565b80600052600360205261073360018060a01b03600360406000200154163314612d14565b801515806108ce575b61074590612b63565b8060005260036020526040600020600f81019081549060ff821660028110156104485761087b5760ff8260081c1661082c57600e0154610786811515612e7e565b34036107d9576101009061ff001916179055604051903482527fbaf4cb64a9e39a28aa28218626ddce2b926617902287c7e6e25ee9f6bf4d0b7d60203393a36001600080516020612f1983398151915255005b60405162461bcd60e51b815260206004820152602560248201527f41756374696f6e506c6174666f726d3a20696e636f72726563742066656520616044820152641b5bdd5b9d60da1b6064820152608490fd5b60405162461bcd60e51b815260206004820152602160248201527f41756374696f6e506c6174666f726d3a2066656520616c7265616479207061696044820152601960fa1b6064820152608490fd5b60405162461bcd60e51b815260206004820152602560248201527f41756374696f6e506c6174666f726d3a2073656c6c65722070617973207368696044820152647070696e6760d81b6064820152608490fd5b5060015481111561073c565b3461029e576108e836612ab7565b906108f1612edc565b61090660018060a01b03600054163314612dc8565b80151580610bcd575b61091890612b63565b60648211610b7e578060005260036020526040600020600881018054600360ff8260081c1661094681612973565b03610b2a576105009061ff00191617905560028101805460006006840181815494555561098060646109788784612acd565b048092612c22565b80158015610af5575b5081818715610ac95750506611c37937e08000820180921161045e576109c96109cf926109c360646109bb8a88612acd565b048092612ae0565b94612c22565b90612ae0565b905b80610a4b575b5080610a20575b50506040519182527f653e6c047dd65627873719eef14c02d5e2b4b0b6271f9c9df08fa5b06107d57960203393a36001600080516020612f1983398151915255005b600080808093610a449560018060a01b039054165af1610a3e612c2f565b50612d6e565b82806109de565b60038301546000918291829182916001600160a01b03165af1610a6c612c2f565b5015610a7857846109d7565b60405162461bcd60e51b8152602060048201526024808201527f41756374696f6e506c6174666f726d3a206275796572207061796f75742066616044820152631a5b195960e21b6064820152608490fd5b9250929050600254916611c37937e08000830180931161045e57610aef92600255612ae0565b906109d1565b9060c881029181830460c814171561045e57612710610b24920490610b1c82600254612ae0565b600255612c22565b86610989565b60405162461bcd60e51b815260206004820152602660248201527f41756374696f6e506c6174666f726d3a206e6f7420696e20446973707574656460448201526520737461746560d01b6064820152608490fd5b60405162461bcd60e51b815260206004820152602160248201527f41756374696f6e506c6174666f726d3a2070657263656e74616765203e2031306044820152600360fc1b6064820152608490fd5b5060015481111561090f565b3461029e57602036600319011261029e5760043580151580610d82575b610bff90612b63565b80600052600360205260406000209060088201805490610c3760ff8316610c2581612973565b60028114908115610d6e575b50612cbc565b60058401544210610d1a57600360ff19831681178255840180549092906001600160a01b031615610cad575060027fd2aa34a4fdbbc6dff6a3e56f46e0f3ae2a31d7785ff3487aa5c95c642acea5019260209261010061ff001982541617905560018060a01b03905416940154604051908152a3005b61ffff19166105031790555060068201805460009182905592549092610cee9184918291829182916001600160a01b03165af1610ce8612c2f565b50612e20565b7fd2aa34a4fdbbc6dff6a3e56f46e0f3ae2a31d7785ff3487aa5c95c642acea5016020604051848152a3005b60405162461bcd60e51b815260206004820152602660248201527f41756374696f6e506c6174666f726d3a2061756374696f6e206e6f742079657460448201526508195b99195960d21b6064820152608490fd5b60019150610d7b81612973565b1486610c31565b50600154811115610bf6565b3461029e57604036600319011261029e57600435602435610dad612edc565b816000526003602052610dce60018060a01b03604060002054163314612b09565b81151580610f6a575b610de090612b63565b8160005260036020526040600020600881018054600160ff8260081c16610e0681612973565b03610f0e57600f83015460ff8116600281101561044857610ef55760081c60ff1615610e9757610200905b61ff00191617905542600982015581600a82015562093a8042019182421161045e577fb77b58bbb105b2438021026f1dc0dd2d68670fce9d37378a32b6a7e1f6f31a7292600c6020930155604051908152a26001600080516020612f1983398151915255005b60405162461bcd60e51b815260206004820152603060248201527f41756374696f6e506c6174666f726d3a20627579657220686173206e6f74207060448201526f616964207368697070696e672066656560801b6064820152608490fd5b5061020090610f09600e8501541515612e7e565b610e31565b60405162461bcd60e51b815260206004820152602e60248201527f41756374696f6e506c6174666f726d3a206e6f7420696e204177616974696e6760448201526d536869706d656e7420737461746560901b6064820152608490fd5b50600154821115610dd7565b3461029e57602036600319011261029e576004356103e88102908082046103e8149015171561045e576127109004662386f26fc10000811115610fbf576020905b604051908152f35b506020662386f26fc10000610fb7565b602036600319011261029e57600435610fe6612edc565b80600052600360205261100a60018060a01b03600360406000200154163314612d14565b80151580611204575b61101c90612b63565b6611c37937e0800034036111b0578060005260036020526040600020600881019081549060ff8260081c1661105081612973565b60028114801561119d575b156111415760019061106c81612973565b146110b9575b5061ff00191661030017905533907f84a477df8a28a4276ca6dee4458a06c3015f30c477d9c949ede4e13ff8a552b4600080a36001600080516020612f1983398151915255005b600501546202a300810180911161045e5742106110d65783611072565b60405162461bcd60e51b815260206004820152603960248201527f41756374696f6e506c6174666f726d3a207761697420666f722073656c6c657260448201527f20746f2073686970206265666f726520646973707574696e67000000000000006064820152608490fd5b60405162461bcd60e51b815260206004820152602e60248201527f41756374696f6e506c6174666f726d3a206e6f7420696e2076616c696420737460448201526d61746520746f206469737075746560901b6064820152608490fd5b506111a781612973565b6001811461105b565b60405162461bcd60e51b815260206004820152602660248201527f41756374696f6e506c6174666f726d3a206d75737420706179206469737075746044820152651948189bdb9960d21b6064820152608490fd5b50600154811115611013565b3461029e57602036600319011261029e5760043561122c612edc565b80600052600360205261124d60018060a01b03604060002054163314612b09565b8015158061135f575b61125f90612b63565b8060005260036020526040600020600881019081549061128560ff8316610c2581612973565b60038101546001600160a01b03166113095761ffff199091166105041790915560068101805460009182905591546112d0928291829182916001600160a01b03165af1610ce8612c2f565b7f28601d865dccc9f113e15a7185c1b38c085d598c71250d3337916a428536d771600080a26001600080516020612f1983398151915255005b60405162461bcd60e51b815260206004820152602860248201527f41756374696f6e506c6174666f726d3a2063616e6e6f742063616e63656c2077604482015267697468206269647360c01b6064820152608490fd5b50600154811115611256565b3461029e57604036600319011261029e576024356001600160a01b038116810361029e57600435600052600460205260406000209060018060a01b03166000526020526020604060002054604051908152f35b612a7d565b612a9a565b3461029e57602036600319011261029e576004356001600160a01b0381169081900361029e57600054611405336001600160a01b03831614612dc8565b811561141b576001600160a01b03191617600055005b60405162461bcd60e51b815260206004820152601d60248201527f41756374696f6e506c6174666f726d3a207a65726f20616464726573730000006044820152606490fd5b3461029e57602036600319011261029e5760043561147c612edc565b8060005260036020526114a060018060a01b03600360406000200154163314612d14565b80151580611727575b6114b290612b63565b80600052600360205260406000209060088201918254600160ff8260081c166114da81612973565b036116c85760028201600081549181600686019182549861050560018060a01b0360038a0154169860018060a01b039054169761ffff191617905555556103e881028181046103e8148215171561045e5761271090046611c37937e080008111156116b957945b818611611668576107d08602938685046107d0148715171561045e5761271061158595049061157a886115748482612c22565b95612c22565b958692600254612ae0565b600255816115f3575b50506000806115ae946115a382958395612ae0565b905af1610a3e612c2f565b60405192835260208301527fa4423d557b1b06aa596d08a35e48ba7dd1e20c2ed6756b0c6577fe6586b242ce60403393a36001600080516020612f1983398151915255005b600080809381939795975af1611607612c2f565b50156116155791838761158e565b60405162461bcd60e51b815260206004820152602560248201527f41756374696f6e506c6174666f726d3a2077696e6e657220726566756e642066604482015264185a5b195960da1b6064820152608490fd5b60405162461bcd60e51b8152602060048201526024808201527f41756374696f6e506c6174666f726d3a2070656e616c7479206578636565647360448201526308189a5960e21b6064820152608490fd5b506611c37937e0800094611541565b60405162461bcd60e51b815260206004820152603160248201527f41756374696f6e506c6174666f726d3a2063616e206f6e6c7920666f726665696044820152701d081899599bdc99481cda1a5c1b595b9d607a1b6064820152608490fd5b506001548111156114a9565b612914565b3461029e57602036600319011261029e57600480356000908152600360208190526040909120805460018201546002830154938301549483015460058401546006850154966001600160a01b0394851696939416919061179a600787016129d9565b600887015498600988015492600a89015494600b8a015496600c8b015498600d8c015460ff169a600e8d01549c600f01549d604051608052608051526080516020015260805160400152608051606001526080516080015260805160a0015260805160c0015260805160e00161024090526080516102400161181b91612932565b9761182860ff8216612973565b60ff811660805161010001528060081c60ff1661184490612973565b60081c60ff1660805161012001526080516101400152608051610160015260805161018001526080516101a0015215156080516101c001526080516101e0015260ff811660021115610448578060ff809216610200608051015260081c16151561022060805101526080519003608051f35b3461029e57600036600319011261029e57602060405160c88152f35b3461029e57600036600319011261029e5760206040516611c37937e080008152f35b3461029e57602036600319011261029e5760043580151580611975575b61191a90612b63565b600052600360205260a0604060002060ff600882015460081c1690600981015490600a81015460ff600d600c84015493015416926040519461195b81612973565b855260208501526040840152606083015215156080820152f35b50600154811115611911565b3461029e57602036600319011261029e5760043580151580611a59575b6119a790612b63565b6000526003602052604060002060018060a01b03815416600182015491600281015490611a3f60018060a01b03600383015416926004830154600584015460068501549160ff60088701541696611a056007600b89015498016129d9565b946040519a8b9a8b5260208b015260408a01526060890152608088015260a087015260c086015261014060e0860152610140850190612932565b91611a4981612973565b6101008401526101208301520390f35b5060015481111561199e565b602036600319011261029e57600435611a7c612edc565b80151580611e36575b611a8e90612b63565b80600052600360205260406000206008810190611ac360ff835416611ab281612973565b60028114908115611e225750612cbc565b60048101544210611dcc57600581019081549081421015611d7c5780546001600160a01b03163314611d2c576002810180549081611ca95760018301543410611c64575b61012c611b144286612c22565b1115611c4e575b600383018054600b95509092906001600160a01b031680611c18575b505034905580546001600160a01b031916331790558354600160ff8216611b5d81612973565b14611c09575b50604051348152857f0e54eff26401bf69b81b26f60bd85ef47f5d85275c1d268d84f68d6897431c4760203393a301548015159081611bfe575b50611bb7575b6001600080516020612f1983398151915255005b6101039082549042905561ffff1916179055604051903482527fd2aa34a4fdbbc6dff6a3e56f46e0f3ae2a31d7785ff3487aa5c95c642acea50160203393a3808080611ba3565b905034101584611b9d565b60ff1916600217845585611b63565b88600052600460205260406000209060018060a01b0316600052602052611c456040600020918254612ae0565b90558780611b37565b61012c840180941161045e57600b938555611b1b565b60405162461bcd60e51b815260206004820152601c60248201527f41756374696f6e506c6174666f726d3a2062696420746f6f206c6f77000000006044820152606490fd5b6101f482028281046101f40361045e57612710611cc7910483612ae0565b341015611b075760405162461bcd60e51b815260206004820152603060248201527f41756374696f6e506c6174666f726d3a20626964206d757374206d656574206d60448201526f1a5b9a5b5d5b481a5b98dc995b595b9d60821b6064820152608490fd5b60405162461bcd60e51b815260206004820152602260248201527f41756374696f6e506c6174666f726d3a2073656c6c65722063616e6e6f7420626044820152611a5960f21b6064820152608490fd5b60405162461bcd60e51b815260206004820152602260248201527f41756374696f6e506c6174666f726d3a2061756374696f6e2068617320656e64604482015261195960f21b6064820152608490fd5b60405162461bcd60e51b815260206004820152602860248201527f41756374696f6e506c6174666f726d3a2061756374696f6e206e6f7420796574604482015267081cdd185c9d195960c21b6064820152608490fd5b60019150611e2f81612973565b1485610c31565b50600154811115611a85565b3461029e57600036600319011261029e5760206040516107d08152f35b3461029e57602036600319011261029e57600435611e7b612edc565b80151580611fc9575b611e8d90612b63565b6000818152600460209081526040808320338452909152902054908115611f78576000526004602052604060002060018060a01b03331660005260205260006040812055600080808084335af1611ee2612c2f565b5015611f28576040519081527f7fcf532c15f0a6db0bd6d0e038bea71d30d808c7d98cb3bf7268a95bf5081b6560203392a26001600080516020612f1983398151915255005b60405162461bcd60e51b815260206004820152602260248201527f41756374696f6e506c6174666f726d3a207769746864726177616c206661696c604482015261195960f21b6064820152608490fd5b60405162461bcd60e51b8152602060048201526024808201527f41756374696f6e506c6174666f726d3a206e6f7468696e6720746f20776974686044820152636472617760e01b6064820152608490fd5b50600154811115611e84565b3461029e57600036600319011261029e576020600254604051908152f35b3461029e57600036600319011261029e576020600154604051908152f35b3461029e57602036600319011261029e5760043561202d612edc565b80600052600360205261204e60018060a01b03604060002054163314612b09565b801515806121a1575b61206090612b63565b8060005260036020526040600020600881018054612089600260ff8360081c1661032181612973565b600c8301544210612150576104009061ff0019161790556002810190815460c881029080820460c8149015171561045e5761271090046120cb81600254612ae0565b908160025560ff600f8401541691600283101561044857600080868896828096819660016121179a14831461042257506103b86103c3916103b0600e8601916103a68354600254612ae0565b7fe2e4e2bd1be58f37bea3ccd7ad64f63e55a38b097525700593d9a9588b321046600080a26001600080516020612f1983398151915255005b60405162461bcd60e51b8152602060048201526024808201527f41756374696f6e506c6174666f726d3a2074696d656f7574206e6f742072656160448201526318da195960e21b6064820152608490fd5b50600154811115612057565b3461029e57600036600319011261029e5760206040516101f48152f35b60c036600319011261029e5760643567ffffffffffffffff811161029e573660238201121561029e5767ffffffffffffffff81600401351161029e5736602482600401358301011161029e57600260a435101561029e57612229612edc565b600435156128bb5742602435106128645760443515612811578060040135156127be576084351580156127b1575b1561274d576103e86004350260043581046103e80361045e576127109004662386f26fc1000081111561273f575b34106126e957600154600019811461045e57600181016001556122ac604435602435612ae0565b914260243511156126e1576001925b60405190610240820182811067ffffffffffffffff8211176126cb5760405233825260043560208301526000604083015260006060830152602435608083015260a08201523460c08201526123138260040135612aed565b9361232160405195866129b7565b60048301358086526000959060248501602083013785602085600401358301015260e083015261235081612973565b6101008201526101208101849052610140810184905261016081018490526084356101808201526101a081018490526101c081018490526101e0810184905260a435610200820152610220810184905260018381018552600360208181526040808820855181546001600160a01b03199081166001600160a01b03928316178355938701519582019590955590850151600282015560608501519281018054909216929093169190911790556080820151600482015560a0820151600582015560c0820151600682015560e082015180519067ffffffffffffffff82116126b75761243e600784015461297d565b601f8111612673575b50602090601f831160011461260757600f9392918891836125fc575b50508160011b916000199060031b1c19161760078201555b6008810161010084015161248e81612973565b61249781612973565b60ff801983541691161781556101208401516124b281612973565b6124bb81612973565b61ff0082549160081b169061ff0019161790556101408301516009820155610160830151600a820155610180830151600b8201556101a0830151600c820155600d81016101c0840151151560ff801983541691161790556101e0830151600e820155019061020081015160028110156125e85782546102209092015161ffff1990921660ff9091161790151560081b61ff00161790557f746d20214efa81416d93efcab16bd32001973fcf91311a92dab2d5993f64efd7612580604435602435612ae0565b604051906004358252602082015260606040820152826004013560608201528260040135602484016080830137846080846004013583010152608081600133960194601f8019916004013501168101030190a36001600080516020612f198339815191525580f35b634e487b7160e01b86526021600452602486fd5b015190508880612463565b6007840188528188209190601f198416895b81811061265b5750916001939185600f97969410612642575b505050811b01600782015561247b565b015160001960f88460031b161c19169055888080612632565b92936020600181928786015181550195019301612619565b60078401885260208820601f840160051c8101602085106126b0575b601f830160051c820181106126a5575050612447565b89815560010161268f565b508061268f565b634e487b7160e01b87526041600452602487fd5b634e487b7160e01b600052604160045260246000fd5b6002926122bb565b60405162461bcd60e51b815260206004820152602860248201527f41756374696f6e506c6174666f726d3a20696e73756666696369656e7420636f6044820152671b1b185d195c985b60c21b6064820152608490fd5b50662386f26fc10000612285565b60405162461bcd60e51b815260206004820152603660248201527f41756374696f6e506c6174666f726d3a206275794e6f775072696365206d75736044820152757420657863656564207374617274696e67507269636560501b6064820152608490fd5b5060043560843511612257565b60405162461bcd60e51b815260206004820152602560248201527f41756374696f6e506c6174666f726d3a2070726f6475637420434944207265716044820152641d5a5c995960da1b6064820152608490fd5b60405162461bcd60e51b815260206004820152602560248201527f41756374696f6e506c6174666f726d3a206475726174696f6e206d7573742062604482015264065203e20360dc1b6064820152608490fd5b60405162461bcd60e51b815260206004820152602960248201527f41756374696f6e506c6174666f726d3a20737461727454696d65206d757374206044820152686265203e3d206e6f7760b81b6064820152608490fd5b60405162461bcd60e51b815260206004820152602b60248201527f41756374696f6e506c6174666f726d3a207374617274696e672070726963652060448201526a06d757374206265203e20360ac1b6064820152608490fd5b3461029e57600036600319011261029e57602060405162093a808152f35b919082519283825260005b84811061295e575050826000602080949584010152601f8019910116010190565b8060208092840101518282860101520161293d565b6006111561044857565b90600182811c921680156129ad575b602083101461299757565b634e487b7160e01b600052602260045260246000fd5b91607f169161298c565b90601f8019910116810190811067ffffffffffffffff8211176126cb57604052565b90604051918260008254926129ed8461297d565b8084529360018116908115612a5b5750600114612a14575b50612a12925003836129b7565b565b90506000929192526020600020906000915b818310612a3f575050906020612a129282010138612a05565b6020919350806001915483858901015201910190918492612a26565b905060209250612a1294915060ff191682840152151560051b82010138612a05565b3461029e57600036600319011261029e57602060405161012c8152f35b3461029e57600036600319011261029e5760206040516103e88152f35b604090600319011261029e576004359060243590565b8181029291811591840414171561045e57565b9190820180921161045e57565b67ffffffffffffffff81116126cb57601f01601f191660200190565b15612b1057565b60405162461bcd60e51b815260206004820152602560248201527f41756374696f6e506c6174666f726d3a2063616c6c6572206973206e6f74207360448201526432b63632b960d91b6064820152608490fd5b15612b6a57565b60405162461bcd60e51b815260206004820152602760248201527f41756374696f6e506c6174666f726d3a2061756374696f6e20646f6573206e6f6044820152661d08195e1a5cdd60ca1b6064820152608490fd5b15612bc657565b60405162461bcd60e51b815260206004820152602e60248201527f41756374696f6e506c6174666f726d3a206e6f7420696e204177616974696e6760448201526d44656c697665727920737461746560901b6064820152608490fd5b9190820391821161045e57565b3d15612c5a573d90612c4082612aed565b91612c4e60405193846129b7565b82523d6000602084013e565b606090565b15612c6657565b60405162461bcd60e51b815260206004820152602860248201527f41756374696f6e506c6174666f726d3a207061796f757420746f2073656c6c656044820152671c8819985a5b195960c21b6064820152608490fd5b15612cc357565b60405162461bcd60e51b815260206004820152602360248201527f41756374696f6e506c6174666f726d3a2061756374696f6e206e6f742061637460448201526269766560e81b6064820152608490fd5b15612d1b57565b60405162461bcd60e51b815260206004820152602560248201527f41756374696f6e506c6174666f726d3a2063616c6c6572206973206e6f74207760448201526434b73732b960d91b6064820152608490fd5b15612d7557565b60405162461bcd60e51b815260206004820152602560248201527f41756374696f6e506c6174666f726d3a2073656c6c6572207061796f75742066604482015264185a5b195960da1b6064820152608490fd5b15612dcf57565b60405162461bcd60e51b8152602060048201526024808201527f41756374696f6e506c6174666f726d3a2063616c6c6572206973206e6f7420616044820152633236b4b760e11b6064820152608490fd5b15612e2757565b60405162461bcd60e51b815260206004820152602960248201527f41756374696f6e506c6174666f726d3a20636f6c6c61746572616c20726566756044820152681b990819985a5b195960ba1b6064820152608490fd5b15612e8557565b60405162461bcd60e51b815260206004820152602960248201527f41756374696f6e506c6174666f726d3a207368697070696e6720666565206e6f6044820152681d081e595d081cd95d60ba1b6064820152608490fd5b6002600080516020612f198339815191525414612f07576002600080516020612f1983398151915255565b633ee5aeb560e01b60005260046000fdfe9b779b17422d0df92223018b32b4d1fa46e071723d6817e2486d003becc55f00a26469706673582212205f5216f292fffa0da60d0b4b62a53a68559d9f09b684557279c43452a97f37e064736f6c634300081c0033",
  "linkReferences": {},
  "deployedLinkReferences": {}
}