{
  "_format": "hh-sol-artifact-1",
  "contractName": "AuctionPlatform",
  "sourceName": "contracts/AuctionPlatform.sol",
  "abi": [
    {
      "inputs": [],
      "stateMutability": "nonpayable",
      "type": "constructor"
    },
    {
      "inputs": [],
      "name": "ReentrancyGuardReentrantCall",
      "type": "error"
    },
    {
      "anonymous": false,
      "inputs": [
        {
          "indexed": true,
          "internalType": "uint256",
          "name": "auctionId",
          "type": "uint256"
        }
      ],
      "name": "AuctionCanceled",
      "type": "event"
    },
    {
      "anonymous": false,
      "inputs": [
        {
          "indexed": true,
          "internalType": "uint256",
          "name": "auctionId",
          "type": "uint256"
        },
        {
          "indexed": true,
          "internalType": "address",
          "name": "seller",
          "type": "address"
        },
        {
          "indexed": false,
          "internalType": "uint256",
          "name": "startingPrice",
          "type": "uint256"
        },
        {
          "indexed": false,
          "internalType": "uint256",
          "name": "endTime",
          "type": "uint256"
        },
        {
          "indexed": false,
          "internalType": "string",
          "name": "productCid",
          "type": "string"
        }
      ],
      "name": "AuctionCreated",
      "type": "event"
    },
    {
      "anonymous": false,
      "inputs": [
        {
          "indexed": true,
          "internalType": "uint256",
          "name": "auctionId",
          "type": "uint256"
        },
        {
          "indexed": true,
          "internalType": "address",
          "name": "winner",
          "type": "address"
        },
        {
          "indexed": false,
          "internalType": "uint256",
          "name": "winningBid",
          "type": "uint256"
        }
      ],
      "name": "AuctionEnded",
      "type": "event"
    },
    {
      "anonymous": false,
      "inputs": [
        {
          "indexed": true,
          "internalType": "uint256",
          "name": "auctionId",
          "type": "uint256"
        }
      ],
      "name": "AutoReleaseCompleted",
      "type": "event"
    },
    {
      "anonymous": false,
      "inputs": [
        {
          "indexed": true,
          "internalType": "uint256",
          "name": "auctionId",
          "type": "uint256"
        },
        {
          "indexed": true,
          "internalType": "address",
          "name": "bidder",
          "type": "address"
        },
        {
          "indexed": false,
          "internalType": "uint256",
          "name": "amount",
          "type": "uint256"
        }
      ],
      "name": "BidPlaced",
      "type": "event"
    },
    {
      "anonymous": false,
      "inputs": [
        {
          "indexed": true,
          "internalType": "uint256",
          "name": "auctionId",
          "type": "uint256"
        },
        {
          "indexed": true,
          "internalType": "address",
          "name": "buyer",
          "type": "address"
        }
      ],
      "name": "DeliveryConfirmed",
      "type": "event"
    },
    {
      "anonymous": false,
      "inputs": [
        {
          "indexed": true,
          "internalType": "uint256",
          "name": "auctionId",
          "type": "uint256"
        },
        {
          "indexed": true,
          "internalType": "address",
          "name": "buyer",
          "type": "address"
        }
      ],
      "name": "DeliveryExtensionRequested",
      "type": "event"
    },
    {
      "anonymous": false,
      "inputs": [
        {
          "indexed": true,
          "internalType": "uint256",
          "name": "auctionId",
          "type": "uint256"
        },
        {
          "indexed": true,
          "internalType": "address",
          "name": "raisedBy",
          "type": "address"
        }
      ],
      "name": "DisputeRaised",
      "type": "event"
    },
    {
      "anonymous": false,
      "inputs": [
        {
          "indexed": true,
          "internalType": "uint256",
          "name": "auctionId",
          "type": "uint256"
        },
        {
          "indexed": false,
          "internalType": "uint256",
          "name": "buyerRefundPercentage",
          "type": "uint256"
        },
        {
          "indexed": true,
          "internalType": "address",
          "name": "resolvedBy",
          "type": "address"
        }
      ],
      "name": "DisputeResolved",
      "type": "event"
    },
    {
      "anonymous": false,
      "inputs": [
        {
          "indexed": true,
          "internalType": "uint256",
          "name": "auctionId",
          "type": "uint256"
        },
        {
          "indexed": false,
          "internalType": "bytes32",
          "name": "shipmentProofHash",
          "type": "bytes32"
        }
      ],
      "name": "ItemShipped",
      "type": "event"
    },
    {
      "anonymous": false,
      "inputs": [
        {
          "indexed": true,
          "internalType": "uint256",
          "name": "auctionId",
          "type": "uint256"
        },
        {
          "indexed": true,
          "internalType": "address",
          "name": "buyer",
          "type": "address"
        },
        {
          "indexed": false,
          "internalType": "uint256",
          "name": "amount",
          "type": "uint256"
        }
      ],
      "name": "ShippingFeePaid",
      "type": "event"
    },
    {
      "anonymous": false,
      "inputs": [
        {
          "indexed": true,
          "internalType": "uint256",
          "name": "auctionId",
          "type": "uint256"
        },
        {
          "indexed": false,
          "internalType": "uint256",
          "name": "fee",
          "type": "uint256"
        }
      ],
      "name": "ShippingFeeSet",
      "type": "event"
    },
    {
      "anonymous": false,
      "inputs": [
        {
          "indexed": true,
          "internalType": "uint256",
          "name": "auctionId",
          "type": "uint256"
        },
        {
          "indexed": true,
          "internalType": "address",
          "name": "winner",
          "type": "address"
        },
        {
          "indexed": false,
          "internalType": "uint256",
          "name": "penalty",
          "type": "uint256"
        },
        {
          "indexed": false,
          "internalType": "uint256",
          "name": "winnerRefund",
          "type": "uint256"
        }
      ],
      "name": "WinnerForfeited",
      "type": "event"
    },
    {
      "anonymous": false,
      "inputs": [
        {
          "indexed": true,
          "internalType": "address",
          "name": "user",
          "type": "address"
        },
        {
          "indexed": false,
          "internalType": "uint256",
          "name": "amount",
          "type": "uint256"
        }
      ],
      "name": "Withdrawal",
      "type": "event"
    },
    {
      "inputs": [],
      "name": "AUTO_RELEASE_TIMEOUT",
      "outputs": [
        {
          "internalType": "uint256",
          "name": "",
          "type": "uint256"
        }
      ],
      "stateMutability": "view",
      "type": "function"
    },
    {
      "inputs": [],
      "name": "DELIVERY_EXTENSION_DURATION",
      "outputs": [
        {
          "internalType": "uint256",
          "name": "",
          "type": "uint256"
        }
      ],
      "stateMutability": "view",
      "type": "function"
    },
    {
      "inputs": [],
      "name": "DISPUTE_MIN_DELAY_SHIPMENT",
      "outputs": [
        {
          "internalType": "uint256",
          "name": "",
          "type": "uint256"
        }
      ],
      "stateMutability": "view",
      "type": "function"
    },
    {
      "inputs": [],
      "name": "EXTENSION_DURATION",
      "outputs": [
        {
          "internalType": "uint256",
          "name": "",
          "type": "uint256"
        }
      ],
      "stateMutability": "view",
      "type": "function"
    },
    {
      "inputs": [],
      "name": "EXTENSION_WINDOW",
      "outputs": [
        {
          "internalType": "uint256",
          "name": "",
          "type": "uint256"
        }
      ],
      "stateMutability": "view",
      "type": "function"
    },
    {
      "inputs": [],
      "name": "FORFEIT_PENALTY_BPS",
      "outputs": [
        {
          "internalType": "uint256",
          "name": "",
          "type": "uint256"
        }
      ],
      "stateMutability": "view",
      "type": "function"
    },
    {
      "inputs": [],
      "name": "FORFEIT_PLATFORM_SHARE_BPS",
      "outputs": [
        {
          "internalType": "uint256",
          "name": "",
          "type": "uint256"
        }
      ],
      "stateMutability": "view",
      "type": "function"
    },
    {
      "inputs": [],
      "name": "admin",
      "outputs": [
        {
          "internalType": "address",
          "name": "",
          "type": "address"
        }
      ],
      "stateMutability": "view",
      "type": "function"
    },
    {
      "inputs": [],
      "name": "adminFeeBalance",
      "outputs": [
        {
          "internalType": "uint256",
          "name": "",
          "type": "uint256"
        }
      ],
      "stateMutability": "view",
      "type": "function"
    },
    {
      "inputs": [],
      "name": "auctionCount",
      "outputs": [
        {
          "internalType": "uint256",
          "name": "",
          "type": "uint256"
        }
      ],
      "stateMutability": "view",
      "type": "function"
    },
    {
      "inputs": [
        {
          "internalType": "uint256",
          "name": "",
          "type": "uint256"
        }
      ],
      "name": "auctions",
      "outputs": [
        {
          "internalType": "address payable",
          "name": "seller",
          "type": "address"
        },
        {
          "internalType": "uint256",
          "name": "startingPrice",
          "type": "uint256"
        },
        {
          "internalType": "uint256",
          "name": "highestBid",
          "type": "uint256"
        },
        {
          "internalType": "address payable",
          "name": "highestBidder",
          "type": "address"
        },
        {
          "internalType": "uint256",
          "name": "startTime",
          "type": "uint256"
        },
        {
          "internalType": "uint256",
          "name": "endTime",
          "type": "uint256"
        },
        {
          "internalType": "uint256",
          "name": "collateral",
          "type": "uint256"
        },
        {
          "internalType": "string",
          "name": "productCid",
          "type": "string"
        },
        {
          "internalType": "enum AuctionPlatform.AuctionStatus",
          "name": "status",
          "type": "uint8"
        },
        {
          "internalType": "enum AuctionPlatform.EscrowStatus",
          "name": "escrowStatus",
          "type": "uint8"
        },
        {
          "internalType": "uint256",
          "name": "shippedTime",
          "type": "uint256"
        },
        {
          "internalType": "bytes32",
          "name": "shipmentProofHash",
          "type": "bytes32"
        },
        {
          "internalType": "uint256",
          "name": "buyNowPrice",
          "type": "uint256"
        },
        {
          "internalType": "uint256",
          "name": "deliveryDeadline",
          "type": "uint256"
        },
        {
          "internalType": "bool",
          "name": "deliveryExtensionUsed",
          "type": "bool"
        },
        {
          "internalType": "uint256",
          "name": "shippingFee",
          "type": "uint256"
        },
        {
          "internalType": "enum AuctionPlatform.ShippingPayer",
          "name": "shippingPayer",
          "type": "uint8"
        },
        {
          "internalType": "bool",
          "name": "shippingFeePaid",
          "type": "bool"
        }
      ],
      "stateMutability": "view",
      "type": "function"
    },
    {
      "inputs": [
        {
          "internalType": "uint256",
          "name": "_auctionId",
          "type": "uint256"
        }
      ],
      "name": "bid",
      "outputs": [],
      "stateMutability": "payable",
      "type": "function"
    },
    {
      "inputs": [
        {
          "internalType": "uint256",
          "name": "_auctionId",
          "type": "uint256"
        }
      ],
      "name": "cancelAuction",
      "outputs": [],
      "stateMutability": "nonpayable",
      "type": "function"
    },
    {
      "inputs": [
        {
          "internalType": "uint256",
          "name": "_auctionId",
          "type": "uint256"
        }
      ],
      "name": "claimFunds",
      "outputs": [],
      "stateMutability": "nonpayable",
      "type": "function"
    },
    {
      "inputs": [],
      "name": "collateralBps",
      "outputs": [
        {
          "internalType": "uint256",
          "name": "",
          "type": "uint256"
        }
      ],
      "stateMutability": "view",
      "type": "function"
    },
    {
      "inputs": [
        {
          "internalType": "uint256",
          "name": "_auctionId",
          "type": "uint256"
        }
      ],
      "name": "confirmDelivery",
      "outputs": [],
      "stateMutability": "nonpayable",
      "type": "function"
    },
    {
      "inputs": [
        {
          "internalType": "uint256",
          "name": "_startingPrice",
          "type": "uint256"
        },
        {
          "internalType": "uint256",
          "name": "_startTime",
          "type": "uint256"
        },
        {
          "internalType": "uint256",
          "name": "_duration",
          "type": "uint256"
        },
        {
          "internalType": "string",
          "name": "_productCid",
          "type": "string"
        },
        {
          "internalType": "uint256",
          "name": "_buyNowPrice",
          "type": "uint256"
        },
        {
          "internalType": "enum AuctionPlatform.ShippingPayer",
          "name": "_shippingPayer",
          "type": "uint8"
        }
      ],
      "name": "createAuction",
      "outputs": [],
      "stateMutability": "payable",
      "type": "function"
    },
    {
      "inputs": [],
      "name": "disputeBond",
      "outputs": [
        {
          "internalType": "uint256",
          "name": "",
          "type": "uint256"
        }
      ],
      "stateMutability": "view",
      "type": "function"
    },
    {
      "inputs": [
        {
          "internalType": "uint256",
          "name": "_auctionId",
          "type": "uint256"
        }
      ],
      "name": "endAuction",
      "outputs": [],
      "stateMutability": "nonpayable",
      "type": "function"
    },
    {
      "inputs": [
        {
          "internalType": "uint256",
          "name": "_auctionId",
          "type": "uint256"
        }
      ],
      "name": "forfeitWin",
      "outputs": [],
      "stateMutability": "nonpayable",
      "type": "function"
    },
    {
      "inputs": [
        {
          "internalType": "uint256",
          "name": "_auctionId",
          "type": "uint256"
        }
      ],
      "name": "getAuctionCore",
      "outputs": [
        {
          "internalType": "address",
          "name": "seller",
          "type": "address"
        },
        {
          "internalType": "uint256",
          "name": "startingPrice",
          "type": "uint256"
        },
        {
          "internalType": "uint256",
          "name": "highestBid",
          "type": "uint256"
        },
        {
          "internalType": "address",
          "name": "highestBidder",
          "type": "address"
        },
        {
          "internalType": "uint256",
          "name": "startTime",
          "type": "uint256"
        },
        {
          "internalType": "uint256",
          "name": "endTime",
          "type": "uint256"
        },
        {
          "internalType": "uint256",
          "name": "collateral",
          "type": "uint256"
        },
        {
          "internalType": "string",
          "name": "productCid",
          "type": "string"
        },
        {
          "internalType": "enum AuctionPlatform.AuctionStatus",
          "name": "status",
          "type": "uint8"
        },
        {
          "internalType": "uint256",
          "name": "buyNowPrice",
          "type": "uint256"
        }
      ],
      "stateMutability": "view",
      "type": "function"
    },
    {
      "inputs": [
        {
          "internalType": "uint256",
          "name": "_auctionId",
          "type": "uint256"
        }
      ],
      "name": "getAuctionEscrow",
      "outputs": [
        {
          "internalType": "enum AuctionPlatform.EscrowStatus",
          "name": "escrowStatus",
          "type": "uint8"
        },
        {
          "internalType": "uint256",
          "name": "shippedTime",
          "type": "uint256"
        },
        {
          "internalType": "bytes32",
          "name": "shipmentProofHash",
          "type": "bytes32"
        },
        {
          "internalType": "uint256",
          "name": "deliveryDeadline",
          "type": "uint256"
        },
        {
          "internalType": "bool",
          "name": "deliveryExtensionUsed",
          "type": "bool"
        }
      ],
      "stateMutability": "view",
      "type": "function"
    },
    {
      "inputs": [
        {
          "internalType": "uint256",
          "name": "_auctionId",
          "type": "uint256"
        },
        {
          "internalType": "bytes32",
          "name": "_shipmentProofHash",
          "type": "bytes32"
        }
      ],
      "name": "markShipped",
      "outputs": [],
      "stateMutability": "nonpayable",
      "type": "function"
    },
    {
      "inputs": [],
      "name": "minBidIncrementBps",
      "outputs": [
        {
          "internalType": "uint256",
          "name": "",
          "type": "uint256"
        }
      ],
      "stateMutability": "view",
      "type": "function"
    },
    {
      "inputs": [],
      "name": "minCollateral",
      "outputs": [
        {
          "internalType": "uint256",
          "name": "",
          "type": "uint256"
        }
      ],
      "stateMutability": "view",
      "type": "function"
    },
    {
      "inputs": [
        {
          "internalType": "uint256",
          "name": "_auctionId",
          "type": "uint256"
        }
      ],
      "name": "payShippingFee",
      "outputs": [],
      "stateMutability": "payable",
      "type": "function"
    },
    {
      "inputs": [
        {
          "internalType": "address",
          "name": "",
          "type": "address"
        }
      ],
      "name": "pendingReturns",
      "outputs": [
        {
          "internalType": "uint256",
          "name": "",
          "type": "uint256"
        }
      ],
      "stateMutability": "view",
      "type": "function"
    },
    {
      "inputs": [],
      "name": "platformFeeBps",
      "outputs": [
        {
          "internalType": "uint256",
          "name": "",
          "type": "uint256"
        }
      ],
      "stateMutability": "view",
      "type": "function"
    },
    {
      "inputs": [
        {
          "internalType": "uint256",
          "name": "_auctionId",
          "type": "uint256"
        }
      ],
      "name": "raiseDispute",
      "outputs": [],
      "stateMutability": "payable",
      "type": "function"
    },
    {
      "inputs": [
        {
          "internalType": "uint256",
          "name": "_auctionId",
          "type": "uint256"
        }
      ],
      "name": "requestDeliveryExtension",
      "outputs": [],
      "stateMutability": "nonpayable",
      "type": "function"
    },
    {
      "inputs": [
        {
          "internalType": "uint256",
          "name": "_startingPrice",
          "type": "uint256"
        }
      ],
      "name": "requiredCollateral",
      "outputs": [
        {
          "internalType": "uint256",
          "name": "",
          "type": "uint256"
        }
      ],
      "stateMutability": "view",
      "type": "function"
    },
    {
      "inputs": [
        {
          "internalType": "uint256",
          "name": "_auctionId",
          "type": "uint256"
        },
        {
          "internalType": "uint256",
          "name": "_buyerRefundPercentage",
          "type": "uint256"
        }
      ],
      "name": "resolveDispute",
      "outputs": [],
      "stateMutability": "nonpayable",
      "type": "function"
    },
    {
      "inputs": [
        {
          "internalType": "uint256",
          "name": "_collateralBps",
          "type": "uint256"
        },
        {
          "internalType": "uint256",
          "name": "_minBidIncrementBps",
          "type": "uint256"
        },
        {
          "internalType": "uint256",
          "name": "_minCollateral",
          "type": "uint256"
        },
        {
          "internalType": "uint256",
          "name": "_platformFeeBps",
          "type": "uint256"
        },
        {
          "internalType": "uint256",
          "name": "_disputeBond",
          "type": "uint256"
        }
      ],
      "name": "setEconomicParams",
      "outputs": [],
      "stateMutability": "nonpayable",
      "type": "function"
    },
    {
      "inputs": [
        {
          "internalType": "uint256",
          "name": "_auctionId",
          "type": "uint256"
        },
        {
          "internalType": "uint256",
          "name": "_fee",
          "type": "uint256"
        }
      ],
      "name": "setShippingFee",
      "outputs": [],
      "stateMutability": "nonpayable",
      "type": "function"
    },
    {
      "inputs": [
        {
          "internalType": "address",
          "name": "_newAdmin",
          "type": "address"
        }
      ],
      "name": "transferAdmin",
      "outputs": [],
      "stateMutability": "nonpayable",
      "type": "function"
    },
    {
      "inputs": [],
      "name": "withdraw",
      "outputs": [],
      "stateMutability": "nonpayable",
      "type": "function"
    },
    {
      "inputs": [],
      "name": "withdrawAdminFee",
      "outputs": [],
      "stateMutability": "nonpayable",
      "type": "function"
    },
    {
      "inputs": [],
      "name": "withdrawAll",
      "outputs": [],
      "stateMutability": "nonpayable",
      "type": "function"
    }
  ],
  "bytecode": "0x6080806040523460715760017f9b779b17422d0df92223018b32b4d1fa46e071723d6817e2486d003becc55f00556103e86003556101f4600455655af3107a400060055560c86006556611c37937e08000600755600080546001600160a01b03191633179055612f6b90816100778239f35b600080fdfe60a0604052600436101561001257600080fd5b60003560e01c806305a34aeb146121f457806317baaf20146121d65780631b55e338146120425780631c1171501461202457806322dcd13e1461200657806326b387bb14611fc857806327f543a614611820578063282e120714611f825780632ad7157314611f645780632d896b2a14611f465780632f2378c414611f295780633ccfd60b14611347578063454a2ab314611b1157806346a0d9b914611a2d57806346d26c2a146119a0578063571a26a0146118255780635baa121c146118205780635dd624df1461147d578063709a3c3514611802578063753a4b0d1461153757806375829def1461149f578063760b08aa146114825780637eb79d5d1461147d578063853828b61461134757806396b5a755146111ec578063a5c1674e14610fb0578063abb7bc4a14610f6d578063b082b44214610d85578063b9a2de3a14610bd0578063ba2de9bc14610bb2578063bdc84ac3146108c6578063c5185a52146106e4578063cde951d714610618578063dff6c839146104bf578063ee91bb59146104a1578063f851a44014610478578063fd84cb97146102b95763fe49abe3146101be57600080fd5b346102b45760003660031901126102b4576000546001600160a01b03166101e6338214612cb9565b6002549081156102635760008080938193826002555af1610205612c2c565b501561020d57005b60405162461bcd60e51b815260206004820152602860248201527f41756374696f6e506c6174666f726d3a2061646d696e207769746864726177616044820152671b0819985a5b195960c21b6064820152608490fd5b60405162461bcd60e51b8152602060048201526024808201527f41756374696f6e506c6174666f726d3a206e6f206665657320746f20776974686044820152636472617760e01b6064820152608490fd5b600080fd5b346102b45760203660031901126102b4576004356102d5612ed9565b8060005260086020526102f960018060a01b03600360406000200154163314612d69565b8015158061046c575b61030b90612b60565b806000526008602052604060002060088101610400815461033d600260ff8360081c166103378161298d565b14612bbc565b61ff001916179055600281019061271061035b835460065490612aca565b0461036881600254612add565b908160025560ff600f8401541691600283101561045657600080868896828096819660016103f59a14831461043057506103c66103d1916103be600e8601916103b48354600254612add565b6002558754612c1f565b905490612c1f565b600684015490612add565b925b5560068101839055546001600160a01b03165af16103ef612c2c565b50612c5c565b33907f64a783c6150854ae756454311c7625a965c757996ba8cc1a8c6205380f337250600080a36001600080516020612f1683398151915255005b610450916104466103c692600e87015490612add565b6002558554612c1f565b926103d3565b634e487b7160e01b600052602160045260246000fd5b50600154811115610302565b346102b45760003660031901126102b4576000546040516001600160a01b039091168152602090f35b346102b45760003660031901126102b45760206040516202a3008152f35b346102b45760203660031901126102b4576004356104db612ed9565b8060005260086020526104ff60018060a01b03600360406000200154163314612d69565b8015158061060c575b61051190612b60565b8060005260086020526040600020610538600260ff600884015460081c166103378161298d565b600d81019081549160ff83166105b7576001600c9360ff19161790550180549062093a8082018092116105a1575533907f5663dae7826cc182b462e0051fc56abe1a17ffea3b9ed82f0f165f4f882f94b8600080a36001600080516020612f1683398151915255005b634e487b7160e01b600052601160045260246000fd5b60405162461bcd60e51b815260206004820152602760248201527f41756374696f6e506c6174666f726d3a20657874656e73696f6e20616c726561604482015266191e481d5cd95960ca1b6064820152608490fd5b50600154811115610508565b346102b45761062636612ab4565b61063b60018060a01b03600054163314612cb9565b811515806106d8575b61064d90612b60565b816000526008602052600e604060002001805461069457817fa855658aeaba6772262f0a1362dc045fddcf6549d8f6124378fe2e1a1d1a50ee9260209255604051908152a2005b606460405162461bcd60e51b815260206004820152602060248201527f41756374696f6e506c6174666f726d3a2066656520616c7265616479207365746044820152fd5b50600154821115610644565b60203660031901126102b4576004356106fb612ed9565b80600052600860205261071f60018060a01b03600360406000200154163314612d69565b801515806108ba575b61073190612b60565b8060005260086020526040600020600f81019081549060ff82166002811015610456576108675760ff8260081c1661081857600e0154610772811515612e7b565b34036107c5576101009061ff001916179055604051903482527fbaf4cb64a9e39a28aa28218626ddce2b926617902287c7e6e25ee9f6bf4d0b7d60203393a36001600080516020612f1683398151915255005b60405162461bcd60e51b815260206004820152602560248201527f41756374696f6e506c6174666f726d3a20696e636f72726563742066656520616044820152641b5bdd5b9d60da1b6064820152608490fd5b60405162461bcd60e51b815260206004820152602160248201527f41756374696f6e506c6174666f726d3a2066656520616c7265616479207061696044820152601960fa1b6064820152608490fd5b60405162461bcd60e51b815260206004820152602560248201527f41756374696f6e506c6174666f726d3a2073656c6c65722070617973207368696044820152647070696e6760d81b6064820152608490fd5b50600154811115610728565b346102b4576108d436612ab4565b906108dd612ed9565b6108f260018060a01b03600054163314612cb9565b80151580610ba6575b61090490612b60565b60648211610b57578060005260086020526040600020600881018054600360ff8260081c166109328161298d565b03610b03576105009061ff00191617905560028101805460006006840181815494555561096c60646109648784612aca565b048092612c1f565b9081610ad3575b80828715610aae575050906109ae6109916109b49360075490612add565b6109a860646109a08a88612aca565b048092612add565b94612c1f565b90612add565b905b80610a30575b5080610a05575b50506040519182527f653e6c047dd65627873719eef14c02d5e2b4b0b6271f9c9df08fa5b06107d57960203393a36001600080516020612f1683398151915255005b600080808093610a299560018060a01b039054165af1610a23612c2c565b50612dc3565b82806109c3565b60038301546000918291829182916001600160a01b03165af1610a51612c2c565b5015610a5d57846109bc565b60405162461bcd60e51b8152602060048201526024808201527f41756374696f6e506c6174666f726d3a206275796572207061796f75742066616044820152631a5b195960e21b6064820152608490fd5b90939150610acd9250610ac5600754600254612add565b600255612add565b906109b6565b90610afd90612710610ae760065483612aca565b0490610af582600254612add565b600255612c1f565b90610973565b60405162461bcd60e51b815260206004820152602660248201527f41756374696f6e506c6174666f726d3a206e6f7420696e20446973707574656460448201526520737461746560d01b6064820152608490fd5b60405162461bcd60e51b815260206004820152602160248201527f41756374696f6e506c6174666f726d3a2070657263656e74616765203e2031306044820152600360fc1b6064820152608490fd5b506001548111156108fb565b346102b45760003660031901126102b4576020600554604051908152f35b346102b45760203660031901126102b45760043580151580610d79575b610bf690612b60565b80600052600860205260406000209060088201805490610c2e60ff8316610c1c8161298d565b60028114908115610d65575b50612d11565b60058401544210610d1157600360ff19831681178255840180549092906001600160a01b031615610ca4575060027fd2aa34a4fdbbc6dff6a3e56f46e0f3ae2a31d7785ff3487aa5c95c642acea5019260209261010061ff001982541617905560018060a01b03905416940154604051908152a3005b61ffff19166105031790555060068201805460009182905592549092610ce59184918291829182916001600160a01b03165af1610cdf612c2c565b50612e1d565b7fd2aa34a4fdbbc6dff6a3e56f46e0f3ae2a31d7785ff3487aa5c95c642acea5016020604051848152a3005b60405162461bcd60e51b815260206004820152602660248201527f41756374696f6e506c6174666f726d3a2061756374696f6e206e6f742079657460448201526508195b99195960d21b6064820152608490fd5b60019150610d728161298d565b1486610c28565b50600154811115610bed565b346102b45760403660031901126102b457600435602435610da4612ed9565b816000526008602052610dc560018060a01b03604060002054163314612b06565b81151580610f61575b610dd790612b60565b8160005260086020526040600020600881018054600160ff8260081c16610dfd8161298d565b03610f0557600f83015460ff8116600281101561045657610eec5760081c60ff1615610e8e57610200905b61ff00191617905542600982015581600a82015562093a804201918242116105a1577fb77b58bbb105b2438021026f1dc0dd2d68670fce9d37378a32b6a7e1f6f31a7292600c6020930155604051908152a26001600080516020612f1683398151915255005b60405162461bcd60e51b815260206004820152603060248201527f41756374696f6e506c6174666f726d3a20627579657220686173206e6f74207060448201526f616964207368697070696e672066656560801b6064820152608490fd5b5061020090610f00600e8501541515612e7b565b610e28565b60405162461bcd60e51b815260206004820152602e60248201527f41756374696f6e506c6174666f726d3a206e6f7420696e204177616974696e6760448201526d536869706d656e7420737461746560901b6064820152608490fd5b50600154821115610dce565b346102b45760203660031901126102b4576020612710610f91600354600435612aca565b04600554808211600014610fa957505b604051908152f35b9050610fa1565b60203660031901126102b457600435610fc7612ed9565b806000526008602052610feb60018060a01b03600360406000200154163314612d69565b801515806111e0575b610ffd90612b60565b600754340361118c578060005260086020526040600020600881019081549060ff8260081c1661102c8161298d565b600281148015611179575b1561111d576001906110488161298d565b14611095575b5061ff00191661030017905533907f84a477df8a28a4276ca6dee4458a06c3015f30c477d9c949ede4e13ff8a552b4600080a36001600080516020612f1683398151915255005b600501546202a30081018091116105a15742106110b2578361104e565b60405162461bcd60e51b815260206004820152603960248201527f41756374696f6e506c6174666f726d3a207761697420666f722073656c6c657260448201527f20746f2073686970206265666f726520646973707574696e67000000000000006064820152608490fd5b60405162461bcd60e51b815260206004820152602e60248201527f41756374696f6e506c6174666f726d3a206e6f7420696e2076616c696420737460448201526d61746520746f206469737075746560901b6064820152608490fd5b506111838161298d565b60018114611037565b60405162461bcd60e51b815260206004820152602660248201527f41756374696f6e506c6174666f726d3a206d75737420706179206469737075746044820152651948189bdb9960d21b6064820152608490fd5b50600154811115610ff4565b346102b45760203660031901126102b457600435611208612ed9565b80600052600860205261122960018060a01b03604060002054163314612b06565b8015158061133b575b61123b90612b60565b8060005260086020526040600020600881019081549061126160ff8316610c1c8161298d565b60038101546001600160a01b03166112e55761ffff199091166105041790915560068101805460009182905591546112ac928291829182916001600160a01b03165af1610cdf612c2c565b7f28601d865dccc9f113e15a7185c1b38c085d598c71250d3337916a428536d771600080a26001600080516020612f1683398151915255005b60405162461bcd60e51b815260206004820152602860248201527f41756374696f6e506c6174666f726d3a2063616e6e6f742063616e63656c2077604482015267697468206269647360c01b6064820152608490fd5b50600154811115611232565b346102b45760003660031901126102b457611360612ed9565b336000526009602052604060002054801561142c5733600052600960205260006040812055600080808084335af1611396612c2c565b50156113dc576040519081527f7fcf532c15f0a6db0bd6d0e038bea71d30d808c7d98cb3bf7268a95bf5081b6560203392a26001600080516020612f1683398151915255005b60405162461bcd60e51b815260206004820152602260248201527f41756374696f6e506c6174666f726d3a207769746864726177616c206661696c604482015261195960f21b6064820152608490fd5b60405162461bcd60e51b8152602060048201526024808201527f41756374696f6e506c6174666f726d3a206e6f7468696e6720746f20776974686044820152636472617760e01b6064820152608490fd5b612a97565b346102b45760003660031901126102b45760206040516103e88152f35b346102b45760203660031901126102b4576004356001600160a01b038116908190036102b4576000546114dc336001600160a01b03831614612cb9565b81156114f2576001600160a01b03191617600055005b60405162461bcd60e51b815260206004820152601d60248201527f41756374696f6e506c6174666f726d3a207a65726f20616464726573730000006044820152606490fd5b346102b45760203660031901126102b457600435611553612ed9565b80600052600860205261157760018060a01b03600360406000200154163314612d69565b801515806117f6575b61158990612b60565b80600052600860205260406000209060088201918254600160ff8260081c166115b18161298d565b036117975760028201600081549181600686019182549861050560018060a01b0360038a0154169860018060a01b039054169761ffff191617905555556103e881028181046103e814821517156105a157612710900460075480821160001461178f5750945b81861161173e576107d08602938685046107d014871517156105a15761271061165b9504906116508861164a8482612c1f565b95612c1f565b958692600254612add565b600255816116c9575b50506000806116849461167982958395612add565b905af1610a23612c2c565b60405192835260208301527fa4423d557b1b06aa596d08a35e48ba7dd1e20c2ed6756b0c6577fe6586b242ce60403393a36001600080516020612f1683398151915255005b600080809381939795975af16116dd612c2c565b50156116eb57918387611664565b60405162461bcd60e51b815260206004820152602560248201527f41756374696f6e506c6174666f726d3a2077696e6e657220726566756e642066604482015264185a5b195960da1b6064820152608490fd5b60405162461bcd60e51b8152602060048201526024808201527f41756374696f6e506c6174666f726d3a2070656e616c7479206578636565647360448201526308189a5960e21b6064820152608490fd5b905094611617565b60405162461bcd60e51b815260206004820152603160248201527f41756374696f6e506c6174666f726d3a2063616e206f6e6c7920666f726665696044820152701d081899599bdc99481cda1a5c1b595b9d607a1b6064820152608490fd5b50600154811115611580565b346102b45760003660031901126102b4576020600354604051908152f35b61292e565b346102b45760203660031901126102b45760048035600090815260086020526040902080546001820154600283015460038401549484015460058501546006860154966001600160a01b039586169695169190611884600787016129f3565b600887015498600988015492600a89015494600b8a015496600c8b015498600d8c015460ff169a600e8d01549c600f01549d604051608052608051526080516020015260805160400152608051606001526080516080015260805160a0015260805160c0015260805160e0016102409052608051610240016119059161294c565b9761191260ff821661298d565b60ff811660805161010001528060081c60ff1661192e9061298d565b60081c60ff1660805161012001526080516101400152608051610160015260805161018001526080516101a0015215156080516101c001526080516101e0015260ff811660021115610456578060ff809216610200608051015260081c16151561022060805101526080519003608051f35b346102b45760203660031901126102b45760043580151580611a21575b6119c690612b60565b600052600860205260a0604060002060ff600882015460081c1690600981015490600a81015460ff600d600c840154930154169260405194611a078161298d565b855260208501526040840152606083015215156080820152f35b506001548111156119bd565b346102b45760203660031901126102b45760043580151580611b05575b611a5390612b60565b6000526008602052604060002060018060a01b03815416600182015491600281015490611aeb60018060a01b03600383015416926004830154600584015460068501549160ff60088701541696611ab16007600b89015498016129f3565b946040519a8b9a8b5260208b015260408a01526060890152608088015260a087015260c086015261014060e086015261014085019061294c565b91611af58161298d565b6101008401526101208301520390f35b50600154811115611a4a565b60203660031901126102b457600435611b28612ed9565b80151580611f1d575b611b3a90612b60565b80600052600860205260406000209060088201611b6f60ff825416611b5e8161298d565b60028114908115611f095750612d11565b60048301544210611eb357600583018054421015611e635783546001600160a01b03163314611e1357336000526009602052611bb060406000205434612add565b600285019081548015600014611d8f575060018601548110611d4a57945b3360005260096020526000604081205582549161012c611bee4285612c1f565b1115611d34575b600382018054600b9450909188916001600160a01b031680611cf0575b505580546001600160a01b031916331790558354600160ff8216611c358161298d565b14611ce1575b50604051868152857f0e54eff26401bf69b81b26f60bd85ef47f5d85275c1d268d84f68d6897431c4760203393a301548015159081611cd6575b50611c8f575b6001600080516020612f1683398151915255005b6101039082549042905561ffff19161790556040519182527fd2aa34a4fdbbc6dff6a3e56f46e0f3ae2a31d7785ff3487aa5c95c642acea50160203393a380808080611c7b565b905084101585611c75565b60ff1916600217845586611c3b565b81549060008080808585610bb8f1611d06612c2c565b5015611d13575b50611c12565b6000526009602052611d2b6040600020918254612add565b90558980611d0d565b61012c83018093116105a157600b928455611bf5565b60405162461bcd60e51b815260206004820152601c60248201527f41756374696f6e506c6174666f726d3a2062696420746f6f206c6f77000000006044820152606490fd5b611da990612710611da260045483612aca565b0490612add565b8110611db55794611bce565b60405162461bcd60e51b815260206004820152603060248201527f41756374696f6e506c6174666f726d3a20626964206d757374206d656574206d60448201526f1a5b9a5b5d5b481a5b98dc995b595b9d60821b6064820152608490fd5b60405162461bcd60e51b815260206004820152602260248201527f41756374696f6e506c6174666f726d3a2073656c6c65722063616e6e6f7420626044820152611a5960f21b6064820152608490fd5b60405162461bcd60e51b815260206004820152602260248201527f41756374696f6e506c6174666f726d3a2061756374696f6e2068617320656e64604482015261195960f21b6064820152608490fd5b60405162461bcd60e51b815260206004820152602860248201527f41756374696f6e506c6174666f726d3a2061756374696f6e206e6f7420796574604482015267081cdd185c9d195960c21b6064820152608490fd5b60019150611f168161298d565b1485610c28565b50600154811115611b31565b346102b45760003660031901126102b45760206040516107d08152f35b346102b45760003660031901126102b4576020600254604051908152f35b346102b45760003660031901126102b4576020600154604051908152f35b346102b45760a03660031901126102b457611fa860018060a01b03600054163314612cb9565b600480356003556024359055604435600555606435600655608435600755005b346102b45760203660031901126102b4576004356001600160a01b038116908190036102b45760005260096020526020604060002054604051908152f35b346102b45760003660031901126102b4576020600654604051908152f35b346102b45760003660031901126102b4576020600454604051908152f35b346102b45760203660031901126102b45760043561205e612ed9565b80600052600860205261207f60018060a01b03604060002054163314612b06565b801515806121ca575b61209190612b60565b80600052600860205260406000206008810180546120ba600260ff8360081c166103378161298d565b600c8301544210612179576104009061ff00191617905560028101906127106120e7835460065490612aca565b046120f481600254612add565b908160025560ff600f8401541691600283101561045657600080868896828096819660016121409a14831461043057506103c66103d1916103be600e8601916103b48354600254612add565b7fe2e4e2bd1be58f37bea3ccd7ad64f63e55a38b097525700593d9a9588b321046600080a26001600080516020612f1683398151915255005b60405162461bcd60e51b8152602060048201526024808201527f41756374696f6e506c6174666f726d3a2074696d656f7574206e6f742072656160448201526318da195960e21b6064820152608490fd5b50600154811115612088565b346102b45760003660031901126102b4576020600754604051908152f35b60c03660031901126102b45760643567ffffffffffffffff81116102b457366023820112156102b45767ffffffffffffffff8160040135116102b4573660248260040135830101116102b457600260a43510156102b457612253612ed9565b600435156128d557426024351061287e576044351561282b578060040135156127d8576084351580156127cb575b1561276757612710612297600354600435612aca565b0460055480821160001461276057505b341061270a5760015460001981146105a157600181016001556122ce604435602435612add565b91426024351115612702576001925b60405190610240820182811067ffffffffffffffff8211176126ec5760405233825260043560208301526000604083015260006060830152602435608083015260a08201523460c08201526123358260040135612aea565b9361234360405195866129d1565b60048301358086526000959060248501602083013785602085600401358301015260e08301526123728161298d565b6101008201526101208101849052610140810184905261016081018490526084356101808201526101a081018490526101c081018490526101e0810184905260a435610200820152610220810184905260018381018552600860209081526040808720845181546001600160a01b03199081166001600160a01b039283161783559386015194820194909455908401516002820155606084015160038201805490931693169290921790556080820151600482015560a0820151600582015560c0820151600682015560e082015180519067ffffffffffffffff82116126d85761245f6007840154612997565b601f8111612694575b50602090601f831160011461262857600f93929188918361261d575b50508160011b916000199060031b1c19161760078201555b600881016101008401516124af8161298d565b6124b88161298d565b60ff801983541691161781556101208401516124d38161298d565b6124dc8161298d565b61ff0082549160081b169061ff0019161790556101408301516009820155610160830151600a820155610180830151600b8201556101a0830151600c820155600d81016101c0840151151560ff801983541691161790556101e0830151600e820155019061020081015160028110156126095782546102209092015161ffff1990921660ff9091161790151560081b61ff00161790557f746d20214efa81416d93efcab16bd32001973fcf91311a92dab2d5993f64efd76125a1604435602435612add565b604051906004358252602082015260606040820152826004013560608201528260040135602484016080830137846080846004013583010152608081600133960194601f8019916004013501168101030190a36001600080516020612f168339815191525580f35b634e487b7160e01b86526021600452602486fd5b015190508880612484565b6007840188528188209190601f198416895b81811061267c5750916001939185600f97969410612663575b505050811b01600782015561249c565b015160001960f88460031b161c19169055888080612653565b9293602060018192878601518155019501930161263a565b60078401885260208820601f840160051c8101602085106126d1575b601f830160051c820181106126c6575050612468565b8981556001016126b0565b50806126b0565b634e487b7160e01b87526041600452602487fd5b634e487b7160e01b600052604160045260246000fd5b6002926122dd565b60405162461bcd60e51b815260206004820152602860248201527f41756374696f6e506c6174666f726d3a20696e73756666696369656e7420636f6044820152671b1b185d195c985b60c21b6064820152608490fd5b90506122a7565b60405162461bcd60e51b815260206004820152603660248201527f41756374696f6e506c6174666f726d3a206275794e6f775072696365206d75736044820152757420657863656564207374617274696e67507269636560501b6064820152608490fd5b5060043560843511612281565b60405162461bcd60e51b815260206004820152602560248201527f41756374696f6e506c6174666f726d3a2070726f6475637420434944207265716044820152641d5a5c995960da1b6064820152608490fd5b60405162461bcd60e51b815260206004820152602560248201527f41756374696f6e506c6174666f726d3a206475726174696f6e206d7573742062604482015264065203e20360dc1b6064820152608490fd5b60405162461bcd60e51b815260206004820152602960248201527f41756374696f6e506c6174666f726d3a20737461727454696d65206d757374206044820152686265203e3d206e6f7760b81b6064820152608490fd5b60405162461bcd60e51b815260206004820152602b60248201527f41756374696f6e506c6174666f726d3a207374617274696e672070726963652060448201526a06d757374206265203e20360ac1b6064820152608490fd5b346102b45760003660031901126102b457602060405162093a808152f35b919082519283825260005b848110612978575050826000602080949584010152601f8019910116010190565b80602080928401015182828601015201612957565b6006111561045657565b90600182811c921680156129c7575b60208310146129b157565b634e487b7160e01b600052602260045260246000fd5b91607f16916129a6565b90601f8019910116810190811067ffffffffffffffff8211176126ec57604052565b9060405191826000825492612a0784612997565b8084529360018116908115612a755750600114612a2e575b50612a2c925003836129d1565b565b90506000929192526020600020906000915b818310612a59575050906020612a2c9282010138612a1f565b6020919350806001915483858901015201910190918492612a40565b905060209250612a2c94915060ff191682840152151560051b82010138612a1f565b346102b45760003660031901126102b457602060405161012c8152f35b60409060031901126102b4576004359060243590565b818102929181159184041417156105a157565b919082018092116105a157565b67ffffffffffffffff81116126ec57601f01601f191660200190565b15612b0d57565b60405162461bcd60e51b815260206004820152602560248201527f41756374696f6e506c6174666f726d3a2063616c6c6572206973206e6f74207360448201526432b63632b960d91b6064820152608490fd5b15612b6757565b60405162461bcd60e51b815260206004820152602760248201527f41756374696f6e506c6174666f726d3a2061756374696f6e20646f6573206e6f6044820152661d08195e1a5cdd60ca1b6064820152608490fd5b15612bc357565b60405162461bcd60e51b815260206004820152602e60248201527f41756374696f6e506c6174666f726d3a206e6f7420696e204177616974696e6760448201526d44656c697665727920737461746560901b6064820152608490fd5b919082039182116105a157565b3d15612c57573d90612c3d82612aea565b91612c4b60405193846129d1565b82523d6000602084013e565b606090565b15612c6357565b60405162461bcd60e51b815260206004820152602860248201527f41756374696f6e506c6174666f726d3a207061796f757420746f2073656c6c656044820152671c8819985a5b195960c21b6064820152608490fd5b15612cc057565b60405162461bcd60e51b8152602060048201526024808201527f41756374696f6e506c6174666f726d3a2063616c6c6572206973206e6f7420616044820152633236b4b760e11b6064820152608490fd5b15612d1857565b60405162461bcd60e51b815260206004820152602360248201527f41756374696f6e506c6174666f726d3a2061756374696f6e206e6f742061637460448201526269766560e81b6064820152608490fd5b15612d7057565b60405162461bcd60e51b815260206004820152602560248201527f41756374696f6e506c6174666f726d3a2063616c6c6572206973206e6f74207760448201526434b73732b960d91b6064820152608490fd5b15612dca57565b60405162461bcd60e51b815260206004820152602560248201527f41756374696f6e506c6174666f726d3a2073656c6c6572207061796f75742066604482015264185a5b195960da1b6064820152608490fd5b15612e2457565b60405162461bcd60e51b815260206004820152602960248201527f41756374696f6e506c6174666f726d3a20636f6c6c61746572616c20726566756044820152681b990819985a5b195960ba1b6064820152608490fd5b15612e8257565b60405162461bcd60e51b815260206004820152602960248201527f41756374696f6e506c6174666f726d3a207368697070696e6720666565206e6f6044820152681d081e595d081cd95d60ba1b6064820152608490fd5b6002600080516020612f168339815191525414612f04576002600080516020612f1683398151915255565b633ee5aeb560e01b60005260046000fdfe9b779b17422d0df92223018b32b4d1fa46e071723d6817e2486d003becc55f00a264697066735822122046b7059125c58c92fb600f34b48e0a67367047e59babfd3211ff04b07137aa4d64736f6c634300081c0033",
  "linkReferences": {},
  "deployedLinkReferences": {}
}