{
  "_format": "hh-sol-artifact-1",
  "contractName": "AuctionPlatform",
  "sourceName": "contracts/AuctionPlatform.sol",
  "abi": [
    {
      "inputs": [],
      "stateMutability": "nonpayable",
      "type": "constructor"
    },
    {
      "inputs": [],
      "name": "ReentrancyGuardReentrantCall",
      "type": "error"
    },
    {
      "anonymous": false,
      "inputs": [
        {
          "indexed": true,
          "internalType": "uint256",
          "name": "auctionId",
          "type": "uint256"
        }
      ],
      "name": "AuctionCanceled",
      "type": "event"
    },
    {
      "anonymous": false,
      "inputs": [
        {
          "indexed": true,
          "internalType": "uint256",
          "name": "auctionId",
          "type": "uint256"
        },
        {
          "indexed": true,
          "internalType": "address",
          "name": "seller",
          "type": "address"
        },
        {
          "indexed": false,
          "internalType": "uint256",
          "name": "startingPrice",
          "type": "uint256"
        },
        {
          "indexed": false,
          "internalType": "uint256",
          "name": "endTime",
          "type": "uint256"
        },
        {
          "indexed": false,
          "internalType": "string",
          "name": "productCid",
          "type": "string"
        }
      ],
      "name": "AuctionCreated",
      "type": "event"
    },
    {
      "anonymous": false,
      "inputs": [
        {
          "indexed": true,
          "internalType": "uint256",
          "name": "auctionId",
          "type": "uint256"
        },
        {
          "indexed": true,
          "internalType": "address",
          "name": "winner",
          "type": "address"
        },
        {
          "indexed": false,
          "internalType": "uint256",
          "name": "winningBid",
          "type": "uint256"
        }
      ],
      "name": "AuctionEnded",
      "type": "event"
    },
    {
      "anonymous": false,
      "inputs": [
        {
          "indexed": true,
          "internalType": "uint256",
          "name": "auctionId",
          "type": "uint256"
        },
        {
          "indexed": true,
          "internalType": "address",
          "name": "bidder",
          "type": "address"
        },
        {
          "indexed": false,
          "internalType": "uint256",
          "name": "amount",
          "type": "uint256"
        }
      ],
      "name": "BidPlaced",
      "type": "event"
    },
    {
      "anonymous": false,
      "inputs": [
        {
          "indexed": true,
          "internalType": "uint256",
          "name": "auctionId",
          "type": "uint256"
        },
        {
          "indexed": true,
          "internalType": "address",
          "name": "buyer",
          "type": "address"
        }
      ],
      "name": "DeliveryConfirmed",
      "type": "event"
    },
    {
      "anonymous": false,
      "inputs": [
        {
          "indexed": true,
          "internalType": "uint256",
          "name": "auctionId",
          "type": "uint256"
        },
        {
          "indexed": true,
          "internalType": "address",
          "name": "raisedBy",
          "type": "address"
        }
      ],
      "name": "DisputeRaised",
      "type": "event"
    },
    {
      "anonymous": false,
      "inputs": [
        {
          "indexed": true,
          "internalType": "uint256",
          "name": "auctionId",
          "type": "uint256"
        },
        {
          "indexed": false,
          "internalType": "bool",
          "name": "refundBuyer",
          "type": "bool"
        },
        {
          "indexed": true,
          "internalType": "address",
          "name": "resolvedBy",
          "type": "address"
        }
      ],
      "name": "DisputeResolved",
      "type": "event"
    },
    {
      "anonymous": false,
      "inputs": [
        {
          "indexed": true,
          "internalType": "address",
          "name": "user",
          "type": "address"
        },
        {
          "indexed": false,
          "internalType": "uint256",
          "name": "amount",
          "type": "uint256"
        }
      ],
      "name": "Withdrawal",
      "type": "event"
    },
    {
      "inputs": [],
      "name": "COLLATERAL_BPS",
      "outputs": [
        {
          "internalType": "uint256",
          "name": "",
          "type": "uint256"
        }
      ],
      "stateMutability": "view",
      "type": "function"
    },
    {
      "inputs": [],
      "name": "admin",
      "outputs": [
        {
          "internalType": "address",
          "name": "",
          "type": "address"
        }
      ],
      "stateMutability": "view",
      "type": "function"
    },
    {
      "inputs": [],
      "name": "auctionCount",
      "outputs": [
        {
          "internalType": "uint256",
          "name": "",
          "type": "uint256"
        }
      ],
      "stateMutability": "view",
      "type": "function"
    },
    {
      "inputs": [
        {
          "internalType": "uint256",
          "name": "",
          "type": "uint256"
        }
      ],
      "name": "auctions",
      "outputs": [
        {
          "internalType": "address payable",
          "name": "seller",
          "type": "address"
        },
        {
          "internalType": "uint256",
          "name": "startingPrice",
          "type": "uint256"
        },
        {
          "internalType": "uint256",
          "name": "highestBid",
          "type": "uint256"
        },
        {
          "internalType": "address payable",
          "name": "highestBidder",
          "type": "address"
        },
        {
          "internalType": "uint256",
          "name": "endTime",
          "type": "uint256"
        },
        {
          "internalType": "uint256",
          "name": "collateral",
          "type": "uint256"
        },
        {
          "internalType": "string",
          "name": "productCid",
          "type": "string"
        },
        {
          "internalType": "enum AuctionPlatform.AuctionStatus",
          "name": "status",
          "type": "uint8"
        },
        {
          "internalType": "enum AuctionPlatform.EscrowStatus",
          "name": "escrowStatus",
          "type": "uint8"
        }
      ],
      "stateMutability": "view",
      "type": "function"
    },
    {
      "inputs": [
        {
          "internalType": "uint256",
          "name": "_auctionId",
          "type": "uint256"
        }
      ],
      "name": "bid",
      "outputs": [],
      "stateMutability": "payable",
      "type": "function"
    },
    {
      "inputs": [
        {
          "internalType": "uint256",
          "name": "_auctionId",
          "type": "uint256"
        }
      ],
      "name": "cancelAuction",
      "outputs": [],
      "stateMutability": "nonpayable",
      "type": "function"
    },
    {
      "inputs": [
        {
          "internalType": "uint256",
          "name": "_auctionId",
          "type": "uint256"
        }
      ],
      "name": "confirmDelivery",
      "outputs": [],
      "stateMutability": "nonpayable",
      "type": "function"
    },
    {
      "inputs": [
        {
          "internalType": "uint256",
          "name": "_startingPrice",
          "type": "uint256"
        },
        {
          "internalType": "uint256",
          "name": "_duration",
          "type": "uint256"
        },
        {
          "internalType": "string",
          "name": "_productCid",
          "type": "string"
        }
      ],
      "name": "createAuction",
      "outputs": [],
      "stateMutability": "payable",
      "type": "function"
    },
    {
      "inputs": [
        {
          "internalType": "uint256",
          "name": "_auctionId",
          "type": "uint256"
        }
      ],
      "name": "endAuction",
      "outputs": [],
      "stateMutability": "nonpayable",
      "type": "function"
    },
    {
      "inputs": [
        {
          "internalType": "uint256",
          "name": "_auctionId",
          "type": "uint256"
        }
      ],
      "name": "getAuctionDetails",
      "outputs": [
        {
          "internalType": "address",
          "name": "seller",
          "type": "address"
        },
        {
          "internalType": "uint256",
          "name": "startingPrice",
          "type": "uint256"
        },
        {
          "internalType": "uint256",
          "name": "highestBid",
          "type": "uint256"
        },
        {
          "internalType": "address",
          "name": "highestBidder",
          "type": "address"
        },
        {
          "internalType": "uint256",
          "name": "endTime",
          "type": "uint256"
        },
        {
          "internalType": "uint256",
          "name": "collateral",
          "type": "uint256"
        },
        {
          "internalType": "string",
          "name": "productCid",
          "type": "string"
        },
        {
          "internalType": "enum AuctionPlatform.AuctionStatus",
          "name": "status",
          "type": "uint8"
        },
        {
          "internalType": "enum AuctionPlatform.EscrowStatus",
          "name": "escrowStatus",
          "type": "uint8"
        }
      ],
      "stateMutability": "view",
      "type": "function"
    },
    {
      "inputs": [
        {
          "internalType": "uint256",
          "name": "",
          "type": "uint256"
        },
        {
          "internalType": "address",
          "name": "",
          "type": "address"
        }
      ],
      "name": "pendingReturns",
      "outputs": [
        {
          "internalType": "uint256",
          "name": "",
          "type": "uint256"
        }
      ],
      "stateMutability": "view",
      "type": "function"
    },
    {
      "inputs": [
        {
          "internalType": "uint256",
          "name": "_auctionId",
          "type": "uint256"
        }
      ],
      "name": "raiseDispute",
      "outputs": [],
      "stateMutability": "nonpayable",
      "type": "function"
    },
    {
      "inputs": [
        {
          "internalType": "uint256",
          "name": "_startingPrice",
          "type": "uint256"
        }
      ],
      "name": "requiredCollateral",
      "outputs": [
        {
          "internalType": "uint256",
          "name": "",
          "type": "uint256"
        }
      ],
      "stateMutability": "pure",
      "type": "function"
    },
    {
      "inputs": [
        {
          "internalType": "uint256",
          "name": "_auctionId",
          "type": "uint256"
        },
        {
          "internalType": "bool",
          "name": "_refundBuyer",
          "type": "bool"
        }
      ],
      "name": "resolveDispute",
      "outputs": [],
      "stateMutability": "nonpayable",
      "type": "function"
    },
    {
      "inputs": [
        {
          "internalType": "address",
          "name": "_newAdmin",
          "type": "address"
        }
      ],
      "name": "transferAdmin",
      "outputs": [],
      "stateMutability": "nonpayable",
      "type": "function"
    },
    {
      "inputs": [
        {
          "internalType": "uint256",
          "name": "_auctionId",
          "type": "uint256"
        }
      ],
      "name": "withdraw",
      "outputs": [],
      "stateMutability": "nonpayable",
      "type": "function"
    }
  ],
  "bytecode": "0x6080604052348015600f57600080fd5b5060017f9b779b17422d0df92223018b32b4d1fa46e071723d6817e2486d003becc55f0055600080546001600160a01b03191633179055611eb0806100556000396000f3fe6080604052600436106100f35760003560e01c80638ddac1ef1161008a578063b9a2de3a11610059578063b9a2de3a1461028c578063f20e5e35146102ac578063f851a440146102cc578063fd84cb971461030457600080fd5b80638ddac1ef146101f457806396b5a7551461022c578063a5c1674e1461024c578063abb7bc4a1461026c57600080fd5b80634736b359116100c65780634736b35914610176578063571a26a0146101895780636bd19a96146101be57806375829def146101d457600080fd5b80632ad71573146100f85780632e1a7d4d1461012157806334b25ee214610143578063454a2ab314610163575b600080fd5b34801561010457600080fd5b5061010e60015481565b6040519081526020015b60405180910390f35b34801561012d57600080fd5b5061014161013c36600461186c565b610324565b005b34801561014f57600080fd5b5061014161015e366004611885565b6104e2565b61014161017136600461186c565b6107fb565b6101416101843660046118ba565b610a5e565b34801561019557600080fd5b506101a96101a436600461186c565b610de1565b604051610118999897969594939291906119bd565b3480156101ca57600080fd5b5061010e6103e881565b3480156101e057600080fd5b506101416101ef366004611a4d565b610ec8565b34801561020057600080fd5b5061010e61020f366004611a6f565b600360209081526000928352604080842090915290825290205481565b34801561023857600080fd5b5061014161024736600461186c565b610f6a565b34801561025857600080fd5b5061014161026736600461186c565b6111a1565b34801561027857600080fd5b5061010e61028736600461186c565b61129a565b34801561029857600080fd5b506101416102a736600461186c565b6112bb565b3480156102b857600080fd5b506101a96102c736600461186c565b6114e7565b3480156102d857600080fd5b506000546102ec906001600160a01b031681565b6040516001600160a01b039091168152602001610118565b34801561031057600080fd5b5061014161031f36600461186c565b61162a565b61032c61181e565b8060008111801561033f57506001548111155b6103645760405162461bcd60e51b815260040161035b90611a9b565b60405180910390fd5b6000828152600360209081526040808320338452909152902054806103d75760405162461bcd60e51b8152602060048201526024808201527f41756374696f6e506c6174666f726d3a206e6f7468696e6720746f20776974686044820152636472617760e01b606482015260840161035b565b60008381526003602090815260408083203380855292528083208390555183908381818185875af1925050503d806000811461042f576040519150601f19603f3d011682016040523d82523d6000602084013e610434565b606091505b50509050806104905760405162461bcd60e51b815260206004820152602260248201527f41756374696f6e506c6174666f726d3a207769746864726177616c206661696c604482015261195960f21b606482015260840161035b565b60405182815233907f7fcf532c15f0a6db0bd6d0e038bea71d30d808c7d98cb3bf7268a95bf5081b659060200160405180910390a25050506104df6001600080516020611e5b83398151915255565b50565b6104ea61181e565b6000546001600160a01b031633146105145760405162461bcd60e51b815260040161035b90611ae2565b8160008111801561052757506001548111155b6105435760405162461bcd60e51b815260040161035b90611a9b565b6000838152600260208190526040909120906007820154610100900460ff16600481111561057357610573611983565b146105cf5760405162461bcd60e51b815260206004820152602660248201527f41756374696f6e506c6174666f726d3a206e6f7420696e20446973707574656460448201526520737461746560d01b606482015260840161035b565b60078101805461ff00191661040017905582156106c8576000816005015482600201546105fc9190611b3c565b60006002840181905560058401819055600384015460405192935090916001600160a01b039091169083908381818185875af1925050503d806000811461065f576040519150601f19603f3d011682016040523d82523d6000602084013e610664565b606091505b50509050806106c15760405162461bcd60e51b8152602060048201526024808201527f41756374696f6e506c6174666f726d3a206275796572207061796f75742066616044820152631a5b195960e21b606482015260840161035b565b50506107a5565b6000816005015482600201546106de9190611b3c565b60006002840181905560058401819055835460405192935090916001600160a01b039091169083908381818185875af1925050503d806000811461073e576040519150601f19603f3d011682016040523d82523d6000602084013e610743565b606091505b50509050806107a25760405162461bcd60e51b815260206004820152602560248201527f41756374696f6e506c6174666f726d3a2073656c6c6572207061796f75742066604482015264185a5b195960da1b606482015260840161035b565b50505b6040518315158152339085907fe4869990df273a675df63cd0acf961e8cac9e8c47748a9d71c02c21e510e850c9060200160405180910390a350506107f76001600080516020611e5b83398151915255565b5050565b61080361181e565b8060008111801561081657506001548111155b6108325760405162461bcd60e51b815260040161035b90611a9b565b60008281526002602052604090206001600782015460ff16600381111561085b5761085b611983565b146108785760405162461bcd60e51b815260040161035b90611b4f565b806004015442106108d65760405162461bcd60e51b815260206004820152602260248201527f41756374696f6e506c6174666f726d3a2061756374696f6e2068617320656e64604482015261195960f21b606482015260840161035b565b80546001600160a01b0316330361093a5760405162461bcd60e51b815260206004820152602260248201527f41756374696f6e506c6174666f726d3a2073656c6c65722063616e6e6f7420626044820152611a5960f21b606482015260840161035b565b806002015434118015610951575080600101543410155b61099d5760405162461bcd60e51b815260206004820152601c60248201527f41756374696f6e506c6174666f726d3a2062696420746f6f206c6f7700000000604482015260640161035b565b60038101546001600160a01b0316156109f05760028101546000848152600360208181526040808420928601546001600160a01b03168452919052812080549091906109ea908490611b3c565b90915550505b34600282018190556003820180546001600160a01b031916339081179091556040519182529084907f0e54eff26401bf69b81b26f60bd85ef47f5d85275c1d268d84f68d6897431c479060200160405180910390a350506104df6001600080516020611e5b83398151915255565b610a6661181e565b60008411610aca5760405162461bcd60e51b815260206004820152602b60248201527f41756374696f6e506c6174666f726d3a207374617274696e672070726963652060448201526a06d757374206265203e20360ac1b606482015260840161035b565b60008311610b285760405162461bcd60e51b815260206004820152602560248201527f41756374696f6e506c6174666f726d3a206475726174696f6e206d7573742062604482015264065203e20360dc1b606482015260840161035b565b80610b835760405162461bcd60e51b815260206004820152602560248201527f41756374696f6e506c6174666f726d3a2070726f6475637420434944207265716044820152641d5a5c995960da1b606482015260840161035b565b6000612710610b946103e887611b92565b610b9e9190611ba9565b905080341015610c015760405162461bcd60e51b815260206004820152602860248201527f41756374696f6e506c6174666f726d3a20696e73756666696369656e7420636f6044820152671b1b185d195c985b60c21b606482015260840161035b565b60018054906000610c1183611bcb565b90915550506001546040805161012081018252338152602081018890526000918101829052606081019190915260808101610c4c8742611b3c565b815260200134815260200185858080601f0160208091040260200160405190810160405280939291908181526020018383808284376000920191909152505050908252506020016001815260200160009052600082815260026020818152604092839020845181546001600160a01b039182166001600160a01b031991821617835592860151600183015593850151928101929092556060840151600383018054919094169116179091556080820151600482015560a0820151600582015560c08201516006820190610d1f9082611c82565b5060e082015160078201805460ff19166001836003811115610d4357610d43611983565b0217905550610100828101516007830180549192909161ff00191690836004811115610d7157610d71611983565b02179055503391508290507f746d20214efa81416d93efcab16bd32001973fcf91311a92dab2d5993f64efd788610da88942611b3c565b8888604051610dba9493929190611d41565b60405180910390a35050610ddb6001600080516020611e5b83398151915255565b50505050565b600260208190526000918252604090912080546001820154928201546003830154600484015460058501546006860180546001600160a01b0396871698979596909416949293919291610e3390611bfa565b80601f0160208091040260200160405190810160405280929190818152602001828054610e5f90611bfa565b8015610eac5780601f10610e8157610100808354040283529160200191610eac565b820191906000526020600020905b815481529060010190602001808311610e8f57829003601f168201915b5050506007909301549192505060ff8082169161010090041689565b6000546001600160a01b03163314610ef25760405162461bcd60e51b815260040161035b90611ae2565b6001600160a01b038116610f485760405162461bcd60e51b815260206004820152601d60248201527f41756374696f6e506c6174666f726d3a207a65726f2061646472657373000000604482015260640161035b565b600080546001600160a01b0319166001600160a01b0392909216919091179055565b610f7261181e565b60008181526002602052604090205481906001600160a01b03163314610fe85760405162461bcd60e51b815260206004820152602560248201527f41756374696f6e506c6174666f726d3a2063616c6c6572206973206e6f74207360448201526432b63632b960d91b606482015260840161035b565b81600081118015610ffb57506001548111155b6110175760405162461bcd60e51b815260040161035b90611a9b565b60008381526002602052604090206001600782015460ff16600381111561104057611040611983565b1461105d5760405162461bcd60e51b815260040161035b90611b4f565b60038101546001600160a01b0316156110c95760405162461bcd60e51b815260206004820152602860248201527f41756374696f6e506c6174666f726d3a2063616e6e6f742063616e63656c2077604482015267697468206269647360c01b606482015260840161035b565b60078101805461ffff191661040317905560058101805460009182905582546040519192916001600160a01b039091169083908381818185875af1925050503d8060008114611134576040519150601f19603f3d011682016040523d82523d6000602084013e611139565b606091505b505090508061115a5760405162461bcd60e51b815260040161035b90611d7e565b60405186907f28601d865dccc9f113e15a7185c1b38c085d598c71250d3337916a428536d77190600090a250505050506104df6001600080516020611e5b83398151915255565b60008181526002602052604090206003015481906001600160a01b031633146111dc5760405162461bcd60e51b815260040161035b90611dc7565b816000811180156111ef57506001548111155b61120b5760405162461bcd60e51b815260040161035b90611a9b565b600083815260026020526040902060016007820154610100900460ff16600481111561123957611239611983565b146112565760405162461bcd60e51b815260040161035b90611e0c565b60078101805461ff001916610200179055604051339085907f84a477df8a28a4276ca6dee4458a06c3015f30c477d9c949ede4e13ff8a552b490600090a350505050565b60006127106112ab6103e884611b92565b6112b59190611ba9565b92915050565b806000811180156112ce57506001548111155b6112ea5760405162461bcd60e51b815260040161035b90611a9b565b60008281526002602052604090206001600782015460ff16600381111561131357611313611983565b146113305760405162461bcd60e51b815260040161035b90611b4f565b80600401544210156113935760405162461bcd60e51b815260206004820152602660248201527f41756374696f6e506c6174666f726d3a2061756374696f6e206e6f742079657460448201526508195b99195960d21b606482015260840161035b565b60078101805460ff1916600217905560038101546001600160a01b0316156114165760078101805461ff0019166101001790556003810154600282015460408051918252516001600160a01b039092169185917fd2aa34a4fdbbc6dff6a3e56f46e0f3ae2a31d7785ff3487aa5c95c642acea501919081900360200190a3505050565b60078101805461ff00191661040017905560058101805460009182905582546040519192916001600160a01b039091169083908381818185875af1925050503d8060008114611481576040519150601f19603f3d011682016040523d82523d6000602084013e611486565b606091505b50509050806114a75760405162461bcd60e51b815260040161035b90611d7e565b60405160008082529086907fd2aa34a4fdbbc6dff6a3e56f46e0f3ae2a31d7785ff3487aa5c95c642acea5019060200160405180910390a350505b505050565b60008060008060008060606000808960008111801561150857506001548111155b6115245760405162461bcd60e51b815260040161035b90611a9b565b60008b81526002602081905260409091208054600182015492820154600383015460048401546005850154600786015460068701805497986001600160a01b0397881698909790951694909160ff808216926101009092041690839061158990611bfa565b80601f01602080910402602001604051908101604052809291908181526020018280546115b590611bfa565b80156116025780601f106115d757610100808354040283529160200191611602565b820191906000526020600020905b8154815290600101906020018083116115e557829003601f168201915b505050505092509a509a509a509a509a509a509a509a509a5050509193959799909294969850565b61163261181e565b60008181526002602052604090206003015481906001600160a01b0316331461166d5760405162461bcd60e51b815260040161035b90611dc7565b8160008111801561168057506001548111155b61169c5760405162461bcd60e51b815260040161035b90611a9b565b600083815260026020526040902060016007820154610100900460ff1660048111156116ca576116ca611983565b146116e75760405162461bcd60e51b815260040161035b90611e0c565b60078101805461ff0019166103001790556005810154600282015460009161170e91611b3c565b60006002840181905560058401819055835460405192935090916001600160a01b039091169083908381818185875af1925050503d806000811461176e576040519150601f19603f3d011682016040523d82523d6000602084013e611773565b606091505b50509050806117d55760405162461bcd60e51b815260206004820152602860248201527f41756374696f6e506c6174666f726d3a207061796f757420746f2073656c6c656044820152671c8819985a5b195960c21b606482015260840161035b565b604051339087907f64a783c6150854ae756454311c7625a965c757996ba8cc1a8c6205380f33725090600090a350505050506104df6001600080516020611e5b83398151915255565b61182661183a565b6002600080516020611e5b83398151915255565b600080516020611e5b8339815191525460020361186a57604051633ee5aeb560e01b815260040160405180910390fd5b565b60006020828403121561187e57600080fd5b5035919050565b6000806040838503121561189857600080fd5b82359150602083013580151581146118af57600080fd5b809150509250929050565b600080600080606085870312156118d057600080fd5b8435935060208501359250604085013567ffffffffffffffff8111156118f557600080fd5b8501601f8101871361190657600080fd5b803567ffffffffffffffff81111561191d57600080fd5b87602082840101111561192f57600080fd5b949793965060200194505050565b6000815180845260005b8181101561196357602081850181015186830182015201611947565b506000602082860101526020601f19601f83011685010191505092915050565b634e487b7160e01b600052602160045260246000fd5b600481106119a9576119a9611983565b9052565b600581106119a9576119a9611983565b6001600160a01b038a81168252602082018a905260408201899052871660608201526080810186905260a0810185905261012060c08201819052600090611a069083018661193d565b9050611a1560e0830185611999565b611a236101008301846119ad565b9a9950505050505050505050565b80356001600160a01b0381168114611a4857600080fd5b919050565b600060208284031215611a5f57600080fd5b611a6882611a31565b9392505050565b60008060408385031215611a8257600080fd5b82359150611a9260208401611a31565b90509250929050565b60208082526027908201527f41756374696f6e506c6174666f726d3a2061756374696f6e20646f6573206e6f6040820152661d08195e1a5cdd60ca1b606082015260800190565b60208082526024908201527f41756374696f6e506c6174666f726d3a2063616c6c6572206973206e6f7420616040820152633236b4b760e11b606082015260800190565b634e487b7160e01b600052601160045260246000fd5b808201808211156112b5576112b5611b26565b60208082526023908201527f41756374696f6e506c6174666f726d3a2061756374696f6e206e6f742061637460408201526269766560e81b606082015260800190565b80820281158282048414176112b5576112b5611b26565b600082611bc657634e487b7160e01b600052601260045260246000fd5b500490565b600060018201611bdd57611bdd611b26565b5060010190565b634e487b7160e01b600052604160045260246000fd5b600181811c90821680611c0e57607f821691505b602082108103611c2e57634e487b7160e01b600052602260045260246000fd5b50919050565b601f8211156114e257806000526020600020601f840160051c81016020851015611c5b5750805b601f840160051c820191505b81811015611c7b5760008155600101611c67565b5050505050565b815167ffffffffffffffff811115611c9c57611c9c611be4565b611cb081611caa8454611bfa565b84611c34565b6020601f821160018114611ce45760008315611ccc5750848201515b600019600385901b1c1916600184901b178455611c7b565b600084815260208120601f198516915b82811015611d145787850151825560209485019460019092019101611cf4565b5084821015611d325786840151600019600387901b60f8161c191681555b50505050600190811b01905550565b84815283602082015260606040820152816060820152818360808301376000818301608090810191909152601f909201601f191601019392505050565b60208082526029908201527f41756374696f6e506c6174666f726d3a20636f6c6c61746572616c20726566756040820152681b990819985a5b195960ba1b606082015260800190565b60208082526025908201527f41756374696f6e506c6174666f726d3a2063616c6c6572206973206e6f74207760408201526434b73732b960d91b606082015260800190565b6020808252602e908201527f41756374696f6e506c6174666f726d3a206e6f7420696e204177616974696e6760408201526d44656c697665727920737461746560901b60608201526080019056fe9b779b17422d0df92223018b32b4d1fa46e071723d6817e2486d003becc55f00a264697066735822122079f69db9adf7cfae2cd410daac8a371b1209cc78282d1dcc9361020f0093537d64736f6c634300081c0033",
  "linkReferences": {},
  "deployedLinkReferences": {}
}