{
  "_format": "hh-sol-artifact-1",
  "contractName": "AuctionPlatform",
  "sourceName": "contracts/AuctionPlatform.sol",
  "abi": [
    {
      "inputs": [],
      "stateMutability": "nonpayable",
      "type": "constructor"
    },
    {
      "inputs": [],
      "name": "ReentrancyGuardReentrantCall",
      "type": "error"
    },
    {
      "anonymous": false,
      "inputs": [
        {
          "indexed": true,
          "internalType": "uint256",
          "name": "auctionId",
          "type": "uint256"
        }
      ],
      "name": "AuctionCanceled",
      "type": "event"
    },
    {
      "anonymous": false,
      "inputs": [
        {
          "indexed": true,
          "internalType": "uint256",
          "name": "auctionId",
          "type": "uint256"
        },
        {
          "indexed": true,
          "internalType": "address",
          "name": "seller",
          "type": "address"
        },
        {
          "indexed": false,
          "internalType": "uint256",
          "name": "startingPrice",
          "type": "uint256"
        },
        {
          "indexed": false,
          "internalType": "uint256",
          "name": "endTime",
          "type": "uint256"
        },
        {
          "indexed": false,
          "internalType": "string",
          "name": "productCid",
          "type": "string"
        }
      ],
      "name": "AuctionCreated",
      "type": "event"
    },
    {
      "anonymous": false,
      "inputs": [
        {
          "indexed": true,
          "internalType": "uint256",
          "name": "auctionId",
          "type": "uint256"
        },
        {
          "indexed": true,
          "internalType": "address",
          "name": "winner",
          "type": "address"
        },
        {
          "indexed": false,
          "internalType": "uint256",
          "name": "winningBid",
          "type": "uint256"
        }
      ],
      "name": "AuctionEnded",
      "type": "event"
    },
    {
      "anonymous": false,
      "inputs": [
        {
          "indexed": true,
          "internalType": "uint256",
          "name": "auctionId",
          "type": "uint256"
        }
      ],
      "name": "AutoReleaseCompleted",
      "type": "event"
    },
    {
      "anonymous": false,
      "inputs": [
        {
          "indexed": true,
          "internalType": "uint256",
          "name": "auctionId",
          "type": "uint256"
        },
        {
          "indexed": true,
          "internalType": "address",
          "name": "bidder",
          "type": "address"
        },
        {
          "indexed": false,
          "internalType": "uint256",
          "name": "amount",
          "type": "uint256"
        }
      ],
      "name": "BidPlaced",
      "type": "event"
    },
    {
      "anonymous": false,
      "inputs": [
        {
          "indexed": true,
          "internalType": "uint256",
          "name": "auctionId",
          "type": "uint256"
        },
        {
          "indexed": true,
          "internalType": "address",
          "name": "buyer",
          "type": "address"
        }
      ],
      "name": "DeliveryConfirmed",
      "type": "event"
    },
    {
      "anonymous": false,
      "inputs": [
        {
          "indexed": true,
          "internalType": "uint256",
          "name": "auctionId",
          "type": "uint256"
        },
        {
          "indexed": true,
          "internalType": "address",
          "name": "buyer",
          "type": "address"
        }
      ],
      "name": "DeliveryExtensionRequested",
      "type": "event"
    },
    {
      "anonymous": false,
      "inputs": [
        {
          "indexed": true,
          "internalType": "uint256",
          "name": "auctionId",
          "type": "uint256"
        },
        {
          "indexed": true,
          "internalType": "address",
          "name": "raisedBy",
          "type": "address"
        }
      ],
      "name": "DisputeRaised",
      "type": "event"
    },
    {
      "anonymous": false,
      "inputs": [
        {
          "indexed": true,
          "internalType": "uint256",
          "name": "auctionId",
          "type": "uint256"
        },
        {
          "indexed": false,
          "internalType": "uint256",
          "name": "buyerRefundPercentage",
          "type": "uint256"
        },
        {
          "indexed": true,
          "internalType": "address",
          "name": "resolvedBy",
          "type": "address"
        }
      ],
      "name": "DisputeResolved",
      "type": "event"
    },
    {
      "anonymous": false,
      "inputs": [
        {
          "indexed": true,
          "internalType": "uint256",
          "name": "auctionId",
          "type": "uint256"
        },
        {
          "indexed": false,
          "internalType": "bytes32",
          "name": "shipmentProofHash",
          "type": "bytes32"
        }
      ],
      "name": "ItemShipped",
      "type": "event"
    },
    {
      "anonymous": false,
      "inputs": [
        {
          "indexed": true,
          "internalType": "uint256",
          "name": "auctionId",
          "type": "uint256"
        },
        {
          "indexed": true,
          "internalType": "address",
          "name": "winner",
          "type": "address"
        },
        {
          "indexed": false,
          "internalType": "uint256",
          "name": "penalty",
          "type": "uint256"
        },
        {
          "indexed": false,
          "internalType": "uint256",
          "name": "winnerRefund",
          "type": "uint256"
        }
      ],
      "name": "WinnerForfeited",
      "type": "event"
    },
    {
      "anonymous": false,
      "inputs": [
        {
          "indexed": true,
          "internalType": "address",
          "name": "user",
          "type": "address"
        },
        {
          "indexed": false,
          "internalType": "uint256",
          "name": "amount",
          "type": "uint256"
        }
      ],
      "name": "Withdrawal",
      "type": "event"
    },
    {
      "inputs": [],
      "name": "AUTO_RELEASE_TIMEOUT",
      "outputs": [
        {
          "internalType": "uint256",
          "name": "",
          "type": "uint256"
        }
      ],
      "stateMutability": "view",
      "type": "function"
    },
    {
      "inputs": [],
      "name": "COLLATERAL_BPS",
      "outputs": [
        {
          "internalType": "uint256",
          "name": "",
          "type": "uint256"
        }
      ],
      "stateMutability": "view",
      "type": "function"
    },
    {
      "inputs": [],
      "name": "DELIVERY_EXTENSION_DURATION",
      "outputs": [
        {
          "internalType": "uint256",
          "name": "",
          "type": "uint256"
        }
      ],
      "stateMutability": "view",
      "type": "function"
    },
    {
      "inputs": [],
      "name": "DISPUTE_BOND",
      "outputs": [
        {
          "internalType": "uint256",
          "name": "",
          "type": "uint256"
        }
      ],
      "stateMutability": "view",
      "type": "function"
    },
    {
      "inputs": [],
      "name": "DISPUTE_MIN_DELAY_SHIPMENT",
      "outputs": [
        {
          "internalType": "uint256",
          "name": "",
          "type": "uint256"
        }
      ],
      "stateMutability": "view",
      "type": "function"
    },
    {
      "inputs": [],
      "name": "EXTENSION_DURATION",
      "outputs": [
        {
          "internalType": "uint256",
          "name": "",
          "type": "uint256"
        }
      ],
      "stateMutability": "view",
      "type": "function"
    },
    {
      "inputs": [],
      "name": "EXTENSION_WINDOW",
      "outputs": [
        {
          "internalType": "uint256",
          "name": "",
          "type": "uint256"
        }
      ],
      "stateMutability": "view",
      "type": "function"
    },
    {
      "inputs": [],
      "name": "FORFEIT_PENALTY_BPS",
      "outputs": [
        {
          "internalType": "uint256",
          "name": "",
          "type": "uint256"
        }
      ],
      "stateMutability": "view",
      "type": "function"
    },
    {
      "inputs": [],
      "name": "FORFEIT_PLATFORM_SHARE_BPS",
      "outputs": [
        {
          "internalType": "uint256",
          "name": "",
          "type": "uint256"
        }
      ],
      "stateMutability": "view",
      "type": "function"
    },
    {
      "inputs": [],
      "name": "MIN_BID_INCREMENT_BPS",
      "outputs": [
        {
          "internalType": "uint256",
          "name": "",
          "type": "uint256"
        }
      ],
      "stateMutability": "view",
      "type": "function"
    },
    {
      "inputs": [],
      "name": "MIN_COLLATERAL",
      "outputs": [
        {
          "internalType": "uint256",
          "name": "",
          "type": "uint256"
        }
      ],
      "stateMutability": "view",
      "type": "function"
    },
    {
      "inputs": [],
      "name": "PLATFORM_FEE_BPS",
      "outputs": [
        {
          "internalType": "uint256",
          "name": "",
          "type": "uint256"
        }
      ],
      "stateMutability": "view",
      "type": "function"
    },
    {
      "inputs": [],
      "name": "admin",
      "outputs": [
        {
          "internalType": "address",
          "name": "",
          "type": "address"
        }
      ],
      "stateMutability": "view",
      "type": "function"
    },
    {
      "inputs": [],
      "name": "adminFeeBalance",
      "outputs": [
        {
          "internalType": "uint256",
          "name": "",
          "type": "uint256"
        }
      ],
      "stateMutability": "view",
      "type": "function"
    },
    {
      "inputs": [],
      "name": "auctionCount",
      "outputs": [
        {
          "internalType": "uint256",
          "name": "",
          "type": "uint256"
        }
      ],
      "stateMutability": "view",
      "type": "function"
    },
    {
      "inputs": [
        {
          "internalType": "uint256",
          "name": "",
          "type": "uint256"
        }
      ],
      "name": "auctions",
      "outputs": [
        {
          "internalType": "address payable",
          "name": "seller",
          "type": "address"
        },
        {
          "internalType": "uint256",
          "name": "startingPrice",
          "type": "uint256"
        },
        {
          "internalType": "uint256",
          "name": "highestBid",
          "type": "uint256"
        },
        {
          "internalType": "address payable",
          "name": "highestBidder",
          "type": "address"
        },
        {
          "internalType": "uint256",
          "name": "endTime",
          "type": "uint256"
        },
        {
          "internalType": "uint256",
          "name": "collateral",
          "type": "uint256"
        },
        {
          "internalType": "string",
          "name": "productCid",
          "type": "string"
        },
        {
          "internalType": "enum AuctionPlatform.AuctionStatus",
          "name": "status",
          "type": "uint8"
        },
        {
          "internalType": "enum AuctionPlatform.EscrowStatus",
          "name": "escrowStatus",
          "type": "uint8"
        },
        {
          "internalType": "uint256",
          "name": "shippedTime",
          "type": "uint256"
        },
        {
          "internalType": "bytes32",
          "name": "shipmentProofHash",
          "type": "bytes32"
        },
        {
          "internalType": "uint256",
          "name": "buyNowPrice",
          "type": "uint256"
        },
        {
          "internalType": "uint256",
          "name": "deliveryDeadline",
          "type": "uint256"
        },
        {
          "internalType": "bool",
          "name": "deliveryExtensionUsed",
          "type": "bool"
        }
      ],
      "stateMutability": "view",
      "type": "function"
    },
    {
      "inputs": [
        {
          "internalType": "uint256",
          "name": "_auctionId",
          "type": "uint256"
        }
      ],
      "name": "bid",
      "outputs": [],
      "stateMutability": "payable",
      "type": "function"
    },
    {
      "inputs": [
        {
          "internalType": "uint256",
          "name": "_auctionId",
          "type": "uint256"
        }
      ],
      "name": "cancelAuction",
      "outputs": [],
      "stateMutability": "nonpayable",
      "type": "function"
    },
    {
      "inputs": [
        {
          "internalType": "uint256",
          "name": "_auctionId",
          "type": "uint256"
        }
      ],
      "name": "claimFunds",
      "outputs": [],
      "stateMutability": "nonpayable",
      "type": "function"
    },
    {
      "inputs": [
        {
          "internalType": "uint256",
          "name": "_auctionId",
          "type": "uint256"
        }
      ],
      "name": "confirmDelivery",
      "outputs": [],
      "stateMutability": "nonpayable",
      "type": "function"
    },
    {
      "inputs": [
        {
          "internalType": "uint256",
          "name": "_startingPrice",
          "type": "uint256"
        },
        {
          "internalType": "uint256",
          "name": "_duration",
          "type": "uint256"
        },
        {
          "internalType": "string",
          "name": "_productCid",
          "type": "string"
        },
        {
          "internalType": "uint256",
          "name": "_buyNowPrice",
          "type": "uint256"
        }
      ],
      "name": "createAuction",
      "outputs": [],
      "stateMutability": "payable",
      "type": "function"
    },
    {
      "inputs": [
        {
          "internalType": "uint256",
          "name": "_auctionId",
          "type": "uint256"
        }
      ],
      "name": "endAuction",
      "outputs": [],
      "stateMutability": "nonpayable",
      "type": "function"
    },
    {
      "inputs": [
        {
          "internalType": "uint256",
          "name": "_auctionId",
          "type": "uint256"
        }
      ],
      "name": "forfeitWin",
      "outputs": [],
      "stateMutability": "nonpayable",
      "type": "function"
    },
    {
      "inputs": [
        {
          "internalType": "uint256",
          "name": "_auctionId",
          "type": "uint256"
        }
      ],
      "name": "getAuctionCore",
      "outputs": [
        {
          "internalType": "address",
          "name": "seller",
          "type": "address"
        },
        {
          "internalType": "uint256",
          "name": "startingPrice",
          "type": "uint256"
        },
        {
          "internalType": "uint256",
          "name": "highestBid",
          "type": "uint256"
        },
        {
          "internalType": "address",
          "name": "highestBidder",
          "type": "address"
        },
        {
          "internalType": "uint256",
          "name": "endTime",
          "type": "uint256"
        },
        {
          "internalType": "uint256",
          "name": "collateral",
          "type": "uint256"
        },
        {
          "internalType": "string",
          "name": "productCid",
          "type": "string"
        },
        {
          "internalType": "enum AuctionPlatform.AuctionStatus",
          "name": "status",
          "type": "uint8"
        },
        {
          "internalType": "uint256",
          "name": "buyNowPrice",
          "type": "uint256"
        }
      ],
      "stateMutability": "view",
      "type": "function"
    },
    {
      "inputs": [
        {
          "internalType": "uint256",
          "name": "_auctionId",
          "type": "uint256"
        }
      ],
      "name": "getAuctionEscrow",
      "outputs": [
        {
          "internalType": "enum AuctionPlatform.EscrowStatus",
          "name": "escrowStatus",
          "type": "uint8"
        },
        {
          "internalType": "uint256",
          "name": "shippedTime",
          "type": "uint256"
        },
        {
          "internalType": "bytes32",
          "name": "shipmentProofHash",
          "type": "bytes32"
        },
        {
          "internalType": "uint256",
          "name": "deliveryDeadline",
          "type": "uint256"
        },
        {
          "internalType": "bool",
          "name": "deliveryExtensionUsed",
          "type": "bool"
        }
      ],
      "stateMutability": "view",
      "type": "function"
    },
    {
      "inputs": [
        {
          "internalType": "uint256",
          "name": "_auctionId",
          "type": "uint256"
        },
        {
          "internalType": "bytes32",
          "name": "_shipmentProofHash",
          "type": "bytes32"
        }
      ],
      "name": "markShipped",
      "outputs": [],
      "stateMutability": "nonpayable",
      "type": "function"
    },
    {
      "inputs": [
        {
          "internalType": "uint256",
          "name": "",
          "type": "uint256"
        },
        {
          "internalType": "address",
          "name": "",
          "type": "address"
        }
      ],
      "name": "pendingReturns",
      "outputs": [
        {
          "internalType": "uint256",
          "name": "",
          "type": "uint256"
        }
      ],
      "stateMutability": "view",
      "type": "function"
    },
    {
      "inputs": [
        {
          "internalType": "uint256",
          "name": "_auctionId",
          "type": "uint256"
        }
      ],
      "name": "raiseDispute",
      "outputs": [],
      "stateMutability": "payable",
      "type": "function"
    },
    {
      "inputs": [
        {
          "internalType": "uint256",
          "name": "_auctionId",
          "type": "uint256"
        }
      ],
      "name": "requestDeliveryExtension",
      "outputs": [],
      "stateMutability": "nonpayable",
      "type": "function"
    },
    {
      "inputs": [
        {
          "internalType": "uint256",
          "name": "_startingPrice",
          "type": "uint256"
        }
      ],
      "name": "requiredCollateral",
      "outputs": [
        {
          "internalType": "uint256",
          "name": "",
          "type": "uint256"
        }
      ],
      "stateMutability": "pure",
      "type": "function"
    },
    {
      "inputs": [
        {
          "internalType": "uint256",
          "name": "_auctionId",
          "type": "uint256"
        },
        {
          "internalType": "uint256",
          "name": "_buyerRefundPercentage",
          "type": "uint256"
        }
      ],
      "name": "resolveDispute",
      "outputs": [],
      "stateMutability": "nonpayable",
      "type": "function"
    },
    {
      "inputs": [
        {
          "internalType": "address",
          "name": "_newAdmin",
          "type": "address"
        }
      ],
      "name": "transferAdmin",
      "outputs": [],
      "stateMutability": "nonpayable",
      "type": "function"
    },
    {
      "inputs": [
        {
          "internalType": "uint256",
          "name": "_auctionId",
          "type": "uint256"
        }
      ],
      "name": "withdraw",
      "outputs": [],
      "stateMutability": "nonpayable",
      "type": "function"
    },
    {
      "inputs": [],
      "name": "withdrawAdminFee",
      "outputs": [],
      "stateMutability": "nonpayable",
      "type": "function"
    }
  ],
  "bytecode": "0x6080604052348015600f57600080fd5b5060017f9b779b17422d0df92223018b32b4d1fa46e071723d6817e2486d003becc55f0055600080546001600160a01b03191633179055613240806100556000396000f3fe6080604052600436106101f95760003560e01c806375829def1161010d578063b9a2de3a116100a0578063ee91bb591161006f578063ee91bb591461052f578063f851a44014610546578063fa7796481461057e578063fd84cb9714610599578063fe49abe3146105b957600080fd5b8063b9a2de3a146104bc578063bdc84ac3146104dc578063dff6c839146104fc578063e9835d151461051c57600080fd5b806396b5a755116100dc57806396b5a75514610449578063a5c1674e14610469578063abb7bc4a1461047c578063b082b4421461049c57600080fd5b806375829def146103f1578063760b08aa146103bb5780637eb79d5d146103a55780638ddac1ef1461041157600080fd5b806346a0d9b911610190578063571a26a01161015f578063571a26a01461036b5780635baa121c146102495780635dd624df146103a55780636bd19a96146103bb578063753a4b0d146103d157600080fd5b806346a0d9b9146102d557806346d26c2a1461030a5780634c68ae631461033b578063539aa77f1461035657600080fd5b80632d896b2a116101cc5780632d896b2a146102765780632e1a7d4d1461028c5780632f2378c4146102ac578063454a2ab3146102c257600080fd5b806314414cc0146101fe5780631b55e3381461022757806327f543a6146102495780632ad7157314610260575b600080fd5b34801561020a57600080fd5b506102146101f481565b6040519081526020015b60405180910390f35b34801561023357600080fd5b50610247610242366004612a7e565b6105ce565b005b34801561025557600080fd5b5061021462093a8081565b34801561026c57600080fd5b5061021460015481565b34801561028257600080fd5b5061021460025481565b34801561029857600080fd5b506102476102a7366004612a7e565b610822565b3480156102b857600080fd5b506102146107d081565b6102476102d0366004612a7e565b6109c5565b3480156102e157600080fd5b506102f56102f0366004612a7e565b610d59565b60405161021e99989796959493929190612b07565b34801561031657600080fd5b5061032a610325366004612a7e565b610e99565b60405161021e959493929190612b84565b34801561034757600080fd5b506102146611c37937e0800081565b34801561036257600080fd5b5061021460c881565b34801561037757600080fd5b5061038b610386366004612a7e565b610f14565b60405161021e9e9d9c9b9a99989796959493929190612bb6565b3480156103b157600080fd5b5061021461012c81565b3480156103c757600080fd5b506102146103e881565b3480156103dd57600080fd5b506102476103ec366004612a7e565b61101f565b3480156103fd57600080fd5b5061024761040c366004612c73565b6113e2565b34801561041d57600080fd5b5061021461042c366004612c8e565b600460209081526000928352604080842090915290825290205481565b34801561045557600080fd5b50610247610464366004612a7e565b611484565b610247610477366004612a7e565b61166e565b34801561048857600080fd5b50610214610497366004612a7e565b6118f6565b3480156104a857600080fd5b506102476104b7366004612cba565b611938565b3480156104c857600080fd5b506102476104d7366004612a7e565b611ab0565b3480156104e857600080fd5b506102476104f7366004612cba565b611cdc565b34801561050857600080fd5b50610247610517366004612a7e565b6120be565b61024761052a366004612cdc565b612247565b34801561053b57600080fd5b506102146202a30081565b34801561055257600080fd5b50600054610566906001600160a01b031681565b6040516001600160a01b03909116815260200161021e565b34801561058a57600080fd5b50610214662386f26fc1000081565b3480156105a557600080fd5b506102476105b4366004612a7e565b6126b9565b3480156105c557600080fd5b506102476128a7565b6105d66129e6565b60008181526003602052604090205481906001600160a01b031633146106175760405162461bcd60e51b815260040161060e90612d67565b60405180910390fd5b8160008111801561062a57506001548111155b6106465760405162461bcd60e51b815260040161060e90612dac565b600083815260036020526040902060026007820154610100900460ff16600581111561067457610674612add565b146106915760405162461bcd60e51b815260040161060e90612df3565b80600b01544210156106f15760405162461bcd60e51b8152602060048201526024808201527f41756374696f6e506c6174666f726d3a2074696d656f7574206e6f742072656160448201526318da195960e21b606482015260840161060e565b60078101805461ff00191661040017905560028101546000906127109061071a9060c890612e57565b6107249190612e74565b905080600260008282546107389190612e96565b92505081905550600082600501548284600201546107569190612ea9565b6107609190612e96565b60006002850181905560058501819055845460405192935090916001600160a01b039091169083908381818185875af1925050503d80600081146107c0576040519150601f19603f3d011682016040523d82523d6000602084013e6107c5565b606091505b50509050806107e65760405162461bcd60e51b815260040161060e90612ebc565b60405187907fe2e4e2bd1be58f37bea3ccd7ad64f63e55a38b097525700593d9a9588b32104690600090a250505050505061081f612a14565b50565b61082a6129e6565b8060008111801561083d57506001548111155b6108595760405162461bcd60e51b815260040161060e90612dac565b6000828152600460209081526040808320338452909152902054806108cc5760405162461bcd60e51b8152602060048201526024808201527f41756374696f6e506c6174666f726d3a206e6f7468696e6720746f20776974686044820152636472617760e01b606482015260840161060e565b60008381526004602090815260408083203380855292528083208390555183908381818185875af1925050503d8060008114610924576040519150601f19603f3d011682016040523d82523d6000602084013e610929565b606091505b50509050806109855760405162461bcd60e51b815260206004820152602260248201527f41756374696f6e506c6174666f726d3a207769746864726177616c206661696c604482015261195960f21b606482015260840161060e565b60405182815233907f7fcf532c15f0a6db0bd6d0e038bea71d30d808c7d98cb3bf7268a95bf5081b659060200160405180910390a250505061081f612a14565b6109cd6129e6565b806000811180156109e057506001548111155b6109fc5760405162461bcd60e51b815260040161060e90612dac565b60008281526003602052604090206001600782015460ff166004811115610a2557610a25612add565b14610a425760405162461bcd60e51b815260040161060e90612f04565b80600401544210610aa05760405162461bcd60e51b815260206004820152602260248201527f41756374696f6e506c6174666f726d3a2061756374696f6e2068617320656e64604482015261195960f21b606482015260840161060e565b80546001600160a01b03163303610b045760405162461bcd60e51b815260206004820152602260248201527f41756374696f6e506c6174666f726d3a2073656c6c65722063616e6e6f7420626044820152611a5960f21b606482015260840161060e565b8060020154600003610b69578060010154341015610b645760405162461bcd60e51b815260206004820152601c60248201527f41756374696f6e506c6174666f726d3a2062696420746f6f206c6f7700000000604482015260640161060e565b610c06565b60006127106101f48360020154610b809190612e57565b610b8a9190612e74565b8260020154610b999190612e96565b905080341015610c045760405162461bcd60e51b815260206004820152603060248201527f41756374696f6e506c6174666f726d3a20626964206d757374206d656574206d60448201526f1a5b9a5b5d5b481a5b98dc995b595b9d60821b606482015260840161060e565b505b61012c428260040154610c199190612ea9565b11610c3a5761012c816004016000828254610c349190612e96565b90915550505b60038101546001600160a01b031615610c8e576002810154600084815260046020908152604080832060038601546001600160a01b0316845290915281208054909190610c88908490612e96565b90915550505b34600282018190556003820180546001600160a01b031916339081179091556040519182529084907f0e54eff26401bf69b81b26f60bd85ef47f5d85275c1d268d84f68d6897431c479060200160405180910390a3600081600a0154118015610cfb575080600a01543410155b15610d4f5760078101805442600484015561ffff1916610102179055604080513481529051339185917fd2aa34a4fdbbc6dff6a3e56f46e0f3ae2a31d7785ff3487aa5c95c642acea5019181900360200190a35b505061081f612a14565b600080600080600080606060008089600081118015610d7a57506001548111155b610d965760405162461bcd60e51b815260040161060e90612dac565b60008b815260036020819052604090912080546001820154600283015493830154600484015460058501546007860154600a87015460068801805498996001600160a01b039889169997989097961695909260ff1691908390610df890612f47565b80601f0160208091040260200160405190810160405280929190818152602001828054610e2490612f47565b8015610e715780601f10610e4657610100808354040283529160200191610e71565b820191906000526020600020905b815481529060010190602001808311610e5457829003601f168201915b505050505092509a509a509a509a509a509a509a509a509a5050509193959799909294969850565b600080600080600085600081118015610eb457506001548111155b610ed05760405162461bcd60e51b815260040161060e90612dac565b5050506000938452505060036020525060409020600781015460088201546009830154600b840154600c9094015460ff610100909404841695929491939192911690565b600360208190526000918252604090912080546001820154600283015493830154600484015460058501546006860180546001600160a01b039687169895979596909416949293919291610f6790612f47565b80601f0160208091040260200160405190810160405280929190818152602001828054610f9390612f47565b8015610fe05780601f10610fb557610100808354040283529160200191610fe0565b820191906000526020600020905b815481529060010190602001808311610fc357829003601f168201915b505050600784015460088501546009860154600a870154600b880154600c90980154969760ff808616986101009096048116975093955091939092168e565b6110276129e6565b6000818152600360208190526040909120015481906001600160a01b031633146110635760405162461bcd60e51b815260040161060e90612f81565b8160008111801561107657506001548111155b6110925760405162461bcd60e51b815260040161060e90612dac565b600083815260036020526040902060016007820154610100900460ff1660058111156110c0576110c0612add565b146111275760405162461bcd60e51b815260206004820152603160248201527f41756374696f6e506c6174666f726d3a2063616e206f6e6c7920666f726665696044820152701d081899599bdc99481cda1a5c1b595b9d607a1b606482015260840161060e565b6002810180546005830180546003850154855460078701805461ffff191661050417905560009586905592859055929390926001600160a01b039081169216906127106111766103e887612e57565b6111809190612e74565b905060006611c37937e08000821161119f576611c37937e080006111a1565b815b9050858111156111ff5760405162461bcd60e51b8152602060048201526024808201527f41756374696f6e506c6174666f726d3a2070656e616c7479206578636565647360448201526308189a5960e21b606482015260840161060e565b60006127106112106107d084612e57565b61121a9190612e74565b905060006112288284612ea9565b90506000611236848a612ea9565b9050826002600082825461124a9190612e96565b90915550508015611308576000876001600160a01b03168260405160006040518083038185875af1925050503d80600081146112a2576040519150601f19603f3d011682016040523d82523d6000602084013e6112a7565b606091505b50509050806113065760405162461bcd60e51b815260206004820152602560248201527f41756374696f6e506c6174666f726d3a2077696e6e657220726566756e642066604482015264185a5b195960da1b606482015260840161060e565b505b60006001600160a01b03871661131e848b612e96565b604051600081818185875af1925050503d806000811461135a576040519150601f19603f3d011682016040523d82523d6000602084013e61135f565b606091505b50509050806113805760405162461bcd60e51b815260040161060e90612fc6565b336001600160a01b03168e7fa4423d557b1b06aa596d08a35e48ba7dd1e20c2ed6756b0c6577fe6586b242ce87856040516113c5929190918252602082015260400190565b60405180910390a35050505050505050505050505061081f612a14565b6000546001600160a01b0316331461140c5760405162461bcd60e51b815260040161060e9061300b565b6001600160a01b0381166114625760405162461bcd60e51b815260206004820152601d60248201527f41756374696f6e506c6174666f726d3a207a65726f2061646472657373000000604482015260640161060e565b600080546001600160a01b0319166001600160a01b0392909216919091179055565b61148c6129e6565b60008181526003602052604090205481906001600160a01b031633146114c45760405162461bcd60e51b815260040161060e90612d67565b816000811180156114d757506001548111155b6114f35760405162461bcd60e51b815260040161060e90612dac565b60008381526003602052604090206001600782015460ff16600481111561151c5761151c612add565b146115395760405162461bcd60e51b815260040161060e90612f04565b60038101546001600160a01b0316156115a55760405162461bcd60e51b815260206004820152602860248201527f41756374696f6e506c6174666f726d3a2063616e6e6f742063616e63656c2077604482015267697468206269647360c01b606482015260840161060e565b60078101805461ffff191661050317905560058101805460009182905582546040519192916001600160a01b039091169083908381818185875af1925050503d8060008114611610576040519150601f19603f3d011682016040523d82523d6000602084013e611615565b606091505b50509050806116365760405162461bcd60e51b815260040161060e9061304f565b60405186907f28601d865dccc9f113e15a7185c1b38c085d598c71250d3337916a428536d77190600090a2505050505061081f612a14565b6116766129e6565b6000818152600360208190526040909120015481906001600160a01b031633146116b25760405162461bcd60e51b815260040161060e90612f81565b816000811180156116c557506001548111155b6116e15760405162461bcd60e51b815260040161060e90612dac565b6611c37937e0800034146117465760405162461bcd60e51b815260206004820152602660248201527f41756374696f6e506c6174666f726d3a206d75737420706179206469737075746044820152651948189bdb9960d21b606482015260840161060e565b600083815260036020526040902060026007820154610100900460ff16600581111561177457611774612add565b148061179d575060016007820154610100900460ff16600581111561179b5761179b612add565b145b6118005760405162461bcd60e51b815260206004820152602e60248201527f41756374696f6e506c6174666f726d3a206e6f7420696e2076616c696420737460448201526d61746520746f206469737075746560901b606482015260840161060e565b60016007820154610100900460ff16600581111561182057611820612add565b036118ad576202a30081600401546118389190612e96565b4210156118ad5760405162461bcd60e51b815260206004820152603960248201527f41756374696f6e506c6174666f726d3a207761697420666f722073656c6c657260448201527f20746f2073686970206265666f726520646973707574696e6700000000000000606482015260840161060e565b60078101805461ff001916610300179055604051339085907f84a477df8a28a4276ca6dee4458a06c3015f30c477d9c949ede4e13ff8a552b490600090a350505061081f612a14565b6000806127106119086103e885612e57565b6119129190612e74565b9050662386f26fc10000811161192f57662386f26fc10000611931565b805b9392505050565b6119406129e6565b60008281526003602052604090205482906001600160a01b031633146119785760405162461bcd60e51b815260040161060e90612d67565b8260008111801561198b57506001548111155b6119a75760405162461bcd60e51b815260040161060e90612dac565b600084815260036020526040902060016007820154610100900460ff1660058111156119d5576119d5612add565b14611a395760405162461bcd60e51b815260206004820152602e60248201527f41756374696f6e506c6174666f726d3a206e6f7420696e204177616974696e6760448201526d536869706d656e7420737461746560901b606482015260840161060e565b60078101805461ff001916610200179055426008820181905560098201859055611a679062093a8090612e96565b600b82015560405184815285907fb77b58bbb105b2438021026f1dc0dd2d68670fce9d37378a32b6a7e1f6f31a729060200160405180910390a2505050611aac612a14565b5050565b80600081118015611ac357506001548111155b611adf5760405162461bcd60e51b815260040161060e90612dac565b60008281526003602052604090206001600782015460ff166004811115611b0857611b08612add565b14611b255760405162461bcd60e51b815260040161060e90612f04565b8060040154421015611b885760405162461bcd60e51b815260206004820152602660248201527f41756374696f6e506c6174666f726d3a2061756374696f6e206e6f742079657460448201526508195b99195960d21b606482015260840161060e565b60078101805460ff1916600217905560038101546001600160a01b031615611c0b5760078101805461ff0019166101001790556003810154600282015460408051918252516001600160a01b039092169185917fd2aa34a4fdbbc6dff6a3e56f46e0f3ae2a31d7785ff3487aa5c95c642acea501919081900360200190a3505050565b60078101805461ff00191661050017905560058101805460009182905582546040519192916001600160a01b039091169083908381818185875af1925050503d8060008114611c76576040519150601f19603f3d011682016040523d82523d6000602084013e611c7b565b606091505b5050905080611c9c5760405162461bcd60e51b815260040161060e9061304f565b60405160008082529086907fd2aa34a4fdbbc6dff6a3e56f46e0f3ae2a31d7785ff3487aa5c95c642acea5019060200160405180910390a350505b505050565b611ce46129e6565b6000546001600160a01b03163314611d0e5760405162461bcd60e51b815260040161060e9061300b565b81600081118015611d2157506001548111155b611d3d5760405162461bcd60e51b815260040161060e90612dac565b6064821115611d985760405162461bcd60e51b815260206004820152602160248201527f41756374696f6e506c6174666f726d3a2070657263656e74616765203e2031306044820152600360fc1b606482015260840161060e565b6000838152600360208190526040909120906007820154610100900460ff166005811115611dc857611dc8612add565b14611e245760405162461bcd60e51b815260206004820152602660248201527f41756374696f6e506c6174666f726d3a206e6f7420696e20446973707574656460448201526520737461746560d01b606482015260840161060e565b60078101805461ff0019166105001790556002810180546005830180546000938490559083905590916064611e598785612e57565b611e639190612e74565b90506000611e718285612ea9565b905060008115611eba57612710611e8960c884612e57565b611e939190612e74565b90508060026000828254611ea79190612e96565b90915550611eb790508183612ea9565b91505b82828915611f1757611ed36611c37937e0800083612e96565b915060006064611ee38c89612e57565b611eed9190612e74565b9050611ef98184612e96565b9250611f058188612ea9565b611f0f9083612e96565b915050611f43565b6611c37937e0800060026000828254611f309190612e96565b90915550611f4090508682612e96565b90505b8115611ffc5760038801546040516000916001600160a01b03169084908381818185875af1925050503d8060008114611f98576040519150601f19603f3d011682016040523d82523d6000602084013e611f9d565b606091505b5050905080611ffa5760405162461bcd60e51b8152602060048201526024808201527f41756374696f6e506c6174666f726d3a206275796572207061796f75742066616044820152631a5b195960e21b606482015260840161060e565b505b80156120765787546040516000916001600160a01b03169083908381818185875af1925050503d806000811461204e576040519150601f19603f3d011682016040523d82523d6000602084013e612053565b606091505b50509050806120745760405162461bcd60e51b815260040161060e90612fc6565b505b6040518a815233908c907f653e6c047dd65627873719eef14c02d5e2b4b0b6271f9c9df08fa5b06107d5799060200160405180910390a3505050505050505050611aac612a14565b6120c66129e6565b6000818152600360208190526040909120015481906001600160a01b031633146121025760405162461bcd60e51b815260040161060e90612f81565b8160008111801561211557506001548111155b6121315760405162461bcd60e51b815260040161060e90612dac565b600083815260036020526040902060026007820154610100900460ff16600581111561215f5761215f612add565b1461217c5760405162461bcd60e51b815260040161060e90612df3565b600c81015460ff16156121e15760405162461bcd60e51b815260206004820152602760248201527f41756374696f6e506c6174666f726d3a20657874656e73696f6e20616c726561604482015266191e481d5cd95960ca1b606482015260840161060e565b600c8101805460ff19166001179055600b8101805462093a80919060009061220a908490612e96565b9091555050604051339085907f5663dae7826cc182b462e0051fc56abe1a17ffea3b9ed82f0f165f4f882f94b890600090a350505061081f612a14565b61224f6129e6565b600085116122b35760405162461bcd60e51b815260206004820152602b60248201527f41756374696f6e506c6174666f726d3a207374617274696e672070726963652060448201526a06d757374206265203e20360ac1b606482015260840161060e565b600084116123115760405162461bcd60e51b815260206004820152602560248201527f41756374696f6e506c6174666f726d3a206475726174696f6e206d7573742062604482015264065203e20360dc1b606482015260840161060e565b8161236c5760405162461bcd60e51b815260206004820152602560248201527f41756374696f6e506c6174666f726d3a2070726f6475637420434944207265716044820152641d5a5c995960da1b606482015260840161060e565b80158061237857508481115b6123e35760405162461bcd60e51b815260206004820152603660248201527f41756374696f6e506c6174666f726d3a206275794e6f775072696365206d75736044820152757420657863656564207374617274696e67507269636560501b606482015260840161060e565b60006127106123f46103e888612e57565b6123fe9190612e74565b90506000662386f26fc10000821161241d57662386f26fc1000061241f565b815b9050803410156124825760405162461bcd60e51b815260206004820152602860248201527f41756374696f6e506c6174666f726d3a20696e73756666696369656e7420636f6044820152671b1b185d195c985b60c21b606482015260840161060e565b6001805490600061249283613098565b9091555050600154604080516101c081018252338152602081018a905260009181018290526060810191909152608081016124cd8942612e96565b815260200134815260200187878080601f016020809104026020016040519081016040528093929190818152602001838380828437600092019190915250505090825250602001600181526020016000815260006020808301829052604080840183905260608085018a9052608080860185905260a0958601859052878552600380855294839020875181546001600160a01b039182166001600160a01b03199182161783559589015160018301559388015160028201559187015194820180549590931694909316939093179055830151600482015590820151600582015560c082015160068201906125c1908261310e565b5060e082015160078201805460ff191660018360048111156125e5576125e5612add565b0217905550610100828101516007830180549192909161ff0019169083600581111561261357612613612add565b021790555061012082015160088201556101408201516009820155610160820151600a820155610180820151600b8201556101a090910151600c909101805460ff191691151591909117905533817f746d20214efa81416d93efcab16bd32001973fcf91311a92dab2d5993f64efd78a61268d8b42612e96565b8a8a60405161269f94939291906131cd565b60405180910390a35050506126b2612a14565b5050505050565b6126c16129e6565b6000818152600360208190526040909120015481906001600160a01b031633146126fd5760405162461bcd60e51b815260040161060e90612f81565b8160008111801561271057506001548111155b61272c5760405162461bcd60e51b815260040161060e90612dac565b600083815260036020526040902060026007820154610100900460ff16600581111561275a5761275a612add565b146127775760405162461bcd60e51b815260040161060e90612df3565b60078101805461ff0019166104001790556002810154600090612710906127a09060c890612e57565b6127aa9190612e74565b905080600260008282546127be9190612e96565b92505081905550600082600501548284600201546127dc9190612ea9565b6127e69190612e96565b60006002850181905560058501819055845460405192935090916001600160a01b039091169083908381818185875af1925050503d8060008114612846576040519150601f19603f3d011682016040523d82523d6000602084013e61284b565b606091505b505090508061286c5760405162461bcd60e51b815260040161060e90612ebc565b604051339088907f64a783c6150854ae756454311c7625a965c757996ba8cc1a8c6205380f33725090600090a350505050505061081f612a14565b6000546001600160a01b031633146128d15760405162461bcd60e51b815260040161060e9061300b565b6002548061292d5760405162461bcd60e51b8152602060048201526024808201527f41756374696f6e506c6174666f726d3a206e6f206665657320746f20776974686044820152636472617760e01b606482015260840161060e565b6000600281905580546040516001600160a01b039091169083908381818185875af1925050503d806000811461297f576040519150601f19603f3d011682016040523d82523d6000602084013e612984565b606091505b5050905080611aac5760405162461bcd60e51b815260206004820152602860248201527f41756374696f6e506c6174666f726d3a2061646d696e207769746864726177616044820152671b0819985a5b195960c21b606482015260840161060e565b6129ee612a3a565b60027f9b779b17422d0df92223018b32b4d1fa46e071723d6817e2486d003becc55f0055565b60017f9b779b17422d0df92223018b32b4d1fa46e071723d6817e2486d003becc55f0055565b7f9b779b17422d0df92223018b32b4d1fa46e071723d6817e2486d003becc55f0054600203612a7c57604051633ee5aeb560e01b815260040160405180910390fd5b565b600060208284031215612a9057600080fd5b5035919050565b6000815180845260005b81811015612abd57602081850181015186830182015201612aa1565b506000602082860101526020601f19601f83011685010191505092915050565b634e487b7160e01b600052602160045260246000fd5b60058110612b0357612b03612add565b9052565b6001600160a01b038a81168252602082018a905260408201899052871660608201526080810186905260a0810185905261012060c08201819052600090612b5090830186612a97565b9050612b5f60e0830185612af3565b826101008301529a9950505050505050505050565b60068110612b0357612b03612add565b60a08101612b928288612b74565b85602083015284604083015283606083015282151560808301529695505050505050565b6001600160a01b038f81168252602082018f9052604082018e90528c1660608201528a60808201528960a08201526101c060c08201526000612bfc6101c083018b612a97565b9050612c0b60e083018a612af3565b612c19610100830189612b74565b86610120830152856101408301528461016083015283610180830152612c446101a083018415159052565b9f9e505050505050505050505050505050565b80356001600160a01b0381168114612c6e57600080fd5b919050565b600060208284031215612c8557600080fd5b61193182612c57565b60008060408385031215612ca157600080fd5b82359150612cb160208401612c57565b90509250929050565b60008060408385031215612ccd57600080fd5b50508035926020909101359150565b600080600080600060808688031215612cf457600080fd5b8535945060208601359350604086013567ffffffffffffffff811115612d1957600080fd5b8601601f81018813612d2a57600080fd5b803567ffffffffffffffff811115612d4157600080fd5b886020828401011115612d5357600080fd5b959894975060200195606001359392505050565b60208082526025908201527f41756374696f6e506c6174666f726d3a2063616c6c6572206973206e6f74207360408201526432b63632b960d91b606082015260800190565b60208082526027908201527f41756374696f6e506c6174666f726d3a2061756374696f6e20646f6573206e6f6040820152661d08195e1a5cdd60ca1b606082015260800190565b6020808252602e908201527f41756374696f6e506c6174666f726d3a206e6f7420696e204177616974696e6760408201526d44656c697665727920737461746560901b606082015260800190565b634e487b7160e01b600052601160045260246000fd5b8082028115828204841417612e6e57612e6e612e41565b92915050565b600082612e9157634e487b7160e01b600052601260045260246000fd5b500490565b80820180821115612e6e57612e6e612e41565b81810381811115612e6e57612e6e612e41565b60208082526028908201527f41756374696f6e506c6174666f726d3a207061796f757420746f2073656c6c656040820152671c8819985a5b195960c21b606082015260800190565b60208082526023908201527f41756374696f6e506c6174666f726d3a2061756374696f6e206e6f742061637460408201526269766560e81b606082015260800190565b600181811c90821680612f5b57607f821691505b602082108103612f7b57634e487b7160e01b600052602260045260246000fd5b50919050565b60208082526025908201527f41756374696f6e506c6174666f726d3a2063616c6c6572206973206e6f74207760408201526434b73732b960d91b606082015260800190565b60208082526025908201527f41756374696f6e506c6174666f726d3a2073656c6c6572207061796f75742066604082015264185a5b195960da1b606082015260800190565b60208082526024908201527f41756374696f6e506c6174666f726d3a2063616c6c6572206973206e6f7420616040820152633236b4b760e11b606082015260800190565b60208082526029908201527f41756374696f6e506c6174666f726d3a20636f6c6c61746572616c20726566756040820152681b990819985a5b195960ba1b606082015260800190565b6000600182016130aa576130aa612e41565b5060010190565b634e487b7160e01b600052604160045260246000fd5b601f821115611cd757806000526020600020601f840160051c810160208510156130ee5750805b601f840160051c820191505b818110156126b257600081556001016130fa565b815167ffffffffffffffff811115613128576131286130b1565b61313c816131368454612f47565b846130c7565b6020601f82116001811461317057600083156131585750848201515b600019600385901b1c1916600184901b1784556126b2565b600084815260208120601f198516915b828110156131a05787850151825560209485019460019092019101613180565b50848210156131be5786840151600019600387901b60f8161c191681555b50505050600190811b01905550565b84815283602082015260606040820152816060820152818360808301376000818301608090810191909152601f909201601f19160101939250505056fea2646970667358221220584654a44f5fa6c3ec437615146ee0c4368c4f68b23dec501e31d4d8bf7d973f64736f6c634300081c0033",
  "linkReferences": {},
  "deployedLinkReferences": {}
}